:020000040800F2
:10000000380700209101000829130008690F000833
:1000100005130008D9040008B91D000800000000FD
:10002000000000000000000000000000451600086D
:100030001D0D000800000000BD1300083118000865
:10004000AB010008AB010008AB010008AB010008E0
:10005000AB010008AB010008AB010008AB010008D0
:10006000AB010008AB010008AB010008AB010008C0
:10007000AB010008AB010008AB010008AB010008B0
:10008000AB010008AB010008AB010008AB010008A0
:10009000611D0008AB010008AB010008AB010008BE
:1000A000AB010008AB010008AB010008AB01000880
:1000B000C1180008ED180008AB010008AB010008EA
:1000C000AB010008AB010008AB010008AB01000860
:1000D000AB010008AB010008AB010008AB01000850
:1000E000AB010008AB010008AB01000800F002F80A
:1000F00000F03EF80AA090E8000C82448344AAF184
:100100000107DA4501D100F033F8AFF2090EBAE881
:100110000F0013F0010F18BFFB1A43F0010318473B
:100120002C3000004C300000103A24BF78C878C151
:10013000FAD8520724BF30C830C144BF04680C60ED
:10014000704700000023002400250026103A28BF35
:1001500078C1FBD8520728BF30C148BF0B60704739
:100160001FB59DE8030000F0A9F81FBD10B510BD34
:1001700000F000F91146FFF7F3FF02F07FF900F0FD
:100180001EF903B4FFF7F2FF03BC00F04FF90000C3
:100190000948804709480047FEE7FEE7FEE7FEE71B
:1001A000FEE7FEE7FEE7FEE7FEE7FEE70448054957
:1001B000054A064B7047000035180008ED0000089E
:1001C00038010020380700203803002038030020C1
:1001D00070B5064600F056F8056806F10B0020F0F1
:1001E0000704B4429CBF002070BD2B466A68BAB1B8
:1001F0001068A04210D304F1080188423CBF506847
:10020000586007D35168101941601168091B0160DB
:1002100058601460101D70BD13465268002AE7D163
:100220002146284600F036F80028DED170BD70B5B2
:100230000446051F00F026F80068002C14BF44682F
:1002400070BD002C18BFAC423CBF20466468F8D398
:1002500001680A18AA4218BF456003D12A680546FA
:100260001144016028684119A1421CBF6C6070BD37
:100270006168696021680844286070BD70477047F4
:100280007047000000487047DC000020704770474E
:100290007047704738B504460A4600206946AFF3F8
:1002A0000080002808BF38BD02460099204600F0B3
:1002B0003FF8012038BD012000F054B8F8B5AFF385
:1002C0000080054600200C46102000BF0646A819F5
:1002D000A0420DD9324669460020AFF300800700E6
:1002E00008BF00F03FF80098A04218BF0546C419A7
:1002F000FFF7C8FF05600746F01D20F0070046190C
:10030000284600F00AF8B44208BFF8BDA21B3146E7
:100310003868BDE8F84000F00BB800210160C0E982
:10032000011070471020704700487047D40000202B
:10033000034640688C46002818BF88423CBF0346ED
:100340004068F8D318681844884207D00CF10300BD
:1003500020F00700001D411A521A0146081D0A60CC
:10036000FFF765BF10B500F039F8BDE8104000F0A8
:100370002FB870477546FFF7D7FFAE4605006946B0
:10038000534620F00700854618B020B5FFF70EFF52
:10039000BDE820404FF000064FF000074FF0000886
:1003A0004FF0000B21F00701AC46ACE8C009ACE807
:1003B000C009ACE8C009ACE8C0098D46704710B56B
:1003C0000446AFF300802046BDE81040FFF7D9BED9
:1003D000002801D000F02AB87047000010B50128AD
:1003E00005D0002103A000F027F8012010BD09A1CD
:1003F000F8E7000053494752544D454D3A204F7598
:1004000074206F662068656170206D656D6F72790C
:10041000000000003A2048656170206D656D6F72C4
:100420007920636F727275707465640001491820D9
:10043000ABBEFEE72600020070B505460C460A205A
:1004400000E06D1C00F011F835B128780028F8D1D3
:1004500002E0641C00F009F814B120780028F8D1FB
:10046000BDE870400A20AFF3008008B569468DF8FA
:1004700000000320ABBE08BD08B50121102000F02C
:10048000BFFF0220ADF8000010208DF8030003200C
:100490008DF802006946064800F0CEFC02210448AF
:1004A00000F05EFD002003498870088008BD000050
:1004B000001001400600002010B50221044800F0A1
:1004C00051FD0020034908800120887010BD000004
:1004D000001001400600002000BFFEE721B1012905
:1004E00007D002290FD109E0826842F080028260C1
:1004F0000AE0826842F40042826005E0826842F4C9
:100500000002826000E000BF00BF70471FB51F48B7
:1005100000F03EF801A800F0D1FA00F001F9012145
:10052000480600F04DFF00208DF80A0001208DF8EC
:100530000B0000208DF80C008DF80D008DF80E00DA
:100540008DF80F008DF806008DF8070005208DF856
:10055000080000208DF809000920ADF8040001A969
:100560000A4800F008F914208DF8000000208DF8EA
:10057000010005208DF8020001208DF80300684677
:1005800000F0DAFE00F0A4F81FBD00000064004097
:1005900010B504460B48844209D10121480600F0F9
:1005A0001FFF00214FF0007000F01AFF08E001214A
:1005B000880600F015FF00214FF0806000F010FF6A
:1005C00010BD00000064004010B50021837A0122B4
:1005D00002FA03F13D4A126842F001023B4B1A60F5
:1005E0003A4A1C3212688A43384B1C331A60027B29
:1005F000CAB9364A0C3212688A43344B0C331A603B
:100600004288C38842EA0343304A4032847A42F83F
:1006100034300288838842EA03432C4A4032847A89
:1006200002EBC4025360027B012A19D1274A0C3223
:1006300012680A43254B0C331A604288038842EA49
:100640000343224A4032847A42F83430C288838895
:1006500042EA03431D4A4032847A02EBC4025360EB
:10066000C27A3AB9194A121D12688A43174B1B1DE8
:100670001A6006E0154A121D12680A43134B1B1D2F
:100680001A60028932B9114A143212688A430F4B38
:1006900014331A600289012A06D10C4A14321268F6
:1006A0000A430A4B14331A60427B012A06D1074AD7
:1006B0001C3212680A43054B1C331A60034A126845
:1006C00022F00102014B1A6010BD000000660040DC
:1006D0001FB500208DF80A008DF80B0001208DF861
:1006E0000C00E020ADF800000020ADF802004EF64E
:1006F0001F70ADF804004FF6FF70ADF80600002043
:10070000ADF8080001208DF80D006846FFF75CFF8A
:1007100001220221014800F025F81FBD00640040BD
:1007200008B50121042000F06BFE4FF48050ADF8B5
:10073000000003208DF8020018208DF803006946A0
:10074000074800F079FB4FF40060ADF80000482046
:100750008DF803006946024800F06EFB08BD0000FA
:10076000000801401AB143690B43436102E0436949
:100770008B434361704730B5024600200023146864
:1007800024F002041460146844F00104146000E0D2
:100790005B1C546804F001041CB94FF6FF74A342BB
:1007A000F6D1546804F001040CB900206CE08C7997
:1007B000012C04D1146844F08004146003E0146830
:1007C00024F080041460CC79012C04D1146844F026
:1007D0004004146003E0146824F0400414600C7AB0
:1007E000012C04D1146844F02004146003E0146860
:1007F00024F0200414604C7A012C04D1146844F0D5
:100800001004146003E0146824F0100414608C7A5F
:10081000012C04D1146844F00804146003E0146847
:1008200024F008041460CC7A012C04D1146844F03C
:100830000404146003E0146824F0040414608C7849
:10084000A407CD7844EA05640D7944EA05444D795E
:1008500044EA05540D886D1E2C43D461146824F0BD
:1008600001041460002300E05B1C546804F00104E0
:100870001CB14FF6FF74A342F6D1546804F0010492
:100880000CB1002000E0012030BD10B500F5D87398
:1008900003EB01131B6803F004031372137A53B9BB
:1008A00000F5D87303EB01131B6840F2FF7404EAF0
:1008B0005353136009E000F5D87303EB01131B6871
:1008C0006FF0604404EAD303536000F5D87303EB80
:1008D00001131B6803F00203537200F5D87303EB96
:1008E00001135B6803F00F03937200F5D87303EBF9
:1008F00001135B681B0AD37400F5D87303EB011373
:100900009B68D37200F5D87303EB01139B681C0A34
:10091000147300F5D87303EB01139B681C0C54731C
:1009200000F5D87303EB01139B681B0E937300F55E
:10093000D87303EB0113DB68D37300F5D87303EBB3
:100940000113DB681C0A147400F5D87303EB011360
:10095000DB681C0C547400F5D87303EB0113DB68DF
:100960001B0E937421B9C36843F02003C36003E0F6
:10097000036943F02003036110BD000010B5074870
:100980000078012808D1052205490648007800F0C2
:1009900081FE00200149087010BD000010000020F9
:1009A000110000200000002010B5044660780128E6
:1009B00004D0022857D0032870D15FE0394821685D
:1009C0000160217901712078082846D2DFE800F023
:1009D0004504450E19242F3A012033490870334944
:1009E00008701021324800F0BBFA3AE003202E498B
:1009F000087001202D49087040212E4800F0B0FAFF
:100A00002FE004202849087001202849087020217F
:100A1000284800F0A5FA24E00520234908700120A9
:100A2000224908701021234800F09AFA19E00620A4
:100A30001D49087001201D49087008211D4800F05B
:100A40008FFA0EE007201849087001201749087036
:100A50000421184800F084FA03E0002012490870CD
:100A600000BF00BF1BE020780F490978884200D002
:100A700010BDE178A07800F015F910E020780A495F
:100A80000978884208D1A078FF2805D1E078FF28AE
:100A900002D101200849087001E0FFE700BF00BF54
:100AA00000BFE5E71100002000000020100000203A
:100AB00000100140000801400B000020002181715E
:100AC000C171017241728172C1728170C170032162
:100AD00001710221417101210180704710B5024668
:100AE0000020936803F08063B3F1806F00D110E0C1
:100AF000936803F00063B3F1006F01D1012008E0B7
:100B0000936803F08053B3F1805F01D1022000E0CD
:100B10000420042874D002F5C07303EB00131B6893
:100B200003F0010402F5C07303EB00131C600B7AA1
:100B30007BB94B7A0C8843EA445302F5C07404EB4A
:100B400000142468234302F5C07404EB00142360EE
:100B500010E00B7A4C6843EAC4034C7A234302F555
:100B6000C07404EB00142468234302F5C07404EB42
:100B7000001423608B7A03F00F038B7202F5C073AD
:100B800003EB00135B6823F00F0402F5C07303EB63
:100B900000135C6002F5C07303EB00135B688C7A92
:100BA000234302F5C07404EB001463608B7B1C06C6
:100BB0004B7B44EA03440B7B44EA0323CC7A234374
:100BC00002F5C07404EB0014A3608B7C1C064B7C04
:100BD00044EA03440B7C44EA0323CC7B234302F521
:100BE000C07404EB0014E36002F5C07303EB001360
:100BF0001B6843F0010402F5C07303EB00131C6093
:100C000010BD000010B50246002321B1012907D014
:100C100002290FD109E090681D4C00EA04030BE0A3
:100C200090681C4C00EA040306E090681A4C00EA45
:100C3000040301E0002300BF00BF184C181BA342AF
:100C400016D007DC83B16FF08060184470B10228C1
:100C500018D111E0B0F5007F10D0114C204448B1FC
:100C6000B0F5003F0ED10BE002230DE000230BE0B6
:100C7000002309E0002307E0012305E0012303E04E
:100C8000012301E0002300BF00BFD8B210BD000067
:100C90000300000400030008000003100001000826
:100CA0000001FFF730B50A460123002104E00024CB
:100CB000114D6C544C1CE1B20A29F8DB012A01D118
:100CC000002300E001230B2814D2DFE800F0130614
:100CD0000708090A0B0C0D0E0F0000BF00BF00BF74
:100CE00000BF00BF00BF00BF00BF00BF441E024DD9
:100CF0002B5500BF00BF30BD8800002010B5024654
:100D00000B460020002104E0545C0444E0B24C1C7B
:100D1000E1B29942F8DBC0F1FF0010BD704700005E
:100D200010B54148007828B14FF400713F4800F0F9
:100D300019F904E04FF400713C4800F011F93A4809
:100D4000407828B14FF40071394800F00BF904E005
:100D50004FF40071364800F003F93348807828B129
:100D60004FF48071324800F0FDF804E04FF48071D8
:100D70002F4800F0F5F82C48C07820B180212C488D
:100D800000F0F0F803E08021294800F0E9F8264857
:100D9000007920B14021264800F0E4F803E040212A
:100DA000234800F0DDF82048407928B14FF4006175
:100DB000204800F0D7F804E04FF400611D4800F02F
:100DC000CFF81948807928B14FF48061194800F0B4
:100DD000C9F804E04FF48061164800F0C1F81248E9
:100DE000C07920B10221134800F0BCF803E00221D1
:100DF000104800F0B5F80C48007A20B101210D48E8
:100E000000F0B0F803E001210A4800F0A9F8064814
:100E1000407A20B12021064800F0A4F803E0202108
:100E2000034800F09DF810BD880000200008014034
:100E300000100140000C01402DE9F0410246002560
:100E40000026002000230024002791F803C00CF0A6
:100E50000F0591F803C00CF0100CBCF1000F03D08B
:100E600091F802C04CEA050591F800C0BCF1000FF2
:100E700031D0146800202BE04FF0010C0CFA00F385
:100E8000B1F800C00CEA03069E4220D183004FF067
:100E90000F0C0CFA03F7BC4305FA03FC4CEA0404FC
:100EA00091F803C0BCF1280F06D14FF0010C0CFAE9
:100EB00000FCC2F814C00AE091F803C0BCF1480F6E
:100EC00005D14FF0010C0CFA00FCC2F810C0401C18
:100ED0000828D1D31460B1F800C0BCF1FF0F34DD95
:100EE000546800202EE000F1080C4FF0010808FAC9
:100EF0000CF3B1F800C00CEA03069E4221D1830036
:100F00004FF00F0C0CFA03F7BC4305FA03FC4CEA54
:100F1000040491F803C0BCF1280F05D100F1080CBE
:100F200008FA0CF8C2F8148091F803C0BCF1480F1D
:100F300007D100F1080C4FF0010808FA0CF8C2F8CC
:100F40001080401C0828CED35460BDE8F0810246D2
:100F5000002093680B400BB1012000E00020704797
:100F6000416170470161704700BFFEE710B5042181
:100F70000348FFF7ECFF08B9012010BD0020FCE793
:100F80000010014010B508210348FFF7E0FF08B941
:100F9000012010BD0020FCE70010014010B5044600
:100FA000E068804730B3207A60B9207921788842A0
:100FB00005DB0120207260722069804702E0207901
:100FC000401C2071207A00B36088F0B1E08861880D
:100FD000884203DAE088401CE0801AE0E0886188FB
:100FE000884216D1E088401CE0800320607260696E
:100FF00080470EE0207A01280BD1207930B90020FB
:101000002072022060720020E08002E02079401E01
:10101000207110BD08B50121102000F0F1F90C205D
:10102000ADF8000048208DF8030069460248FFF73C
:1010300003FF00F003F808BD0010014001200F4934
:101040000870002048800871C880087248720C48F7
:10105000C8600C4808610C48486101200B490870C1
:101060003220488000200871C88008724872084801
:10107000C86008480861084848617047940000202B
:10108000850F0008C1100008C9100008AC0000203E
:101090006D0F00089D100008A110000870470000A7
:1010A00010B508200449087002210448FFF758FFD2
:1010B00000F016F910BD00000000002000080140FB
:1010C00010B500F0C1FA10BD7047000010B5074818
:1010D0000078142808DB0648FFF760FF0548FFF793
:1010E0005DFF00200149087010BD000002000020D3
:1010F00094000020AC00002008B501211C2000F065
:101100007FF940F2FF60ADF8000010208DF8030079
:1011100003208DF8020069461748FFF78DFE40F264
:10112000FF611548FFF71EFF40F60340ADF80000D1
:1011300010208DF8030003208DF8020069460F4847
:10114000FFF77AFE40F603410C48FFF70BFF4FF420
:101150007C70ADF8000010208DF8030003208DF89E
:10116000020069460648FFF767FE4FF47C710448A9
:10117000FFF7F8FE08BD000000080140000C014028
:101180000010014010B52048007805283BD11F48C9
:101190000078012819D11E4800781E491E4A12788D
:1011A00088541D480078401C1B4908700846007888
:1011B000022825DB002008704FF480711748FFF7E4
:1011C000CFFE0220114908701AE01048007802286A
:1011D00016D10F48007812490F4A127888540E48E9
:1011E0000078401C0C49087008460078022807DB8C
:1011F0000020087003200549087002200949087082
:1012000000200149087010BD030000201C000020D0
:101210001B0000201D00002021000020000C0140C8
:101220001F0000200100002008B50121082000F067
:10123000E7F84FF48070ADF8000010208DF803003F
:1012400003208DF8020069460B48FFF7F5FD4FF4C7
:1012500080710948FFF786FE4FF40070ADF800007A
:1012600003208DF8020004208DF80300694602482F
:10127000FFF7E2FD08BD0000000C014013490978AA
:10128000022921D10021114A1170002004E000211F
:101290000F4A1154411CC8B20A28F8DB0D490978DD
:1012A0000C4A5278914209D00B4909780A4A52787F
:1012B000914203D10021064A117002E00121044A43
:1012C00011700121054A11707047000001000020D3
:1012D000880000201D0000201F0000200B000020BF
:1012E00010B54FF480710448FFF73CFE012003491C
:1012F00008700349087010BD000C01401C0000205C
:101300000100002000BFFEE710B54CF25111002093
:1013100000F0BAFD10BD10B500F050FD4CF25111B7
:10132000002000F00AFE10BD704710B54FF4A06019
:1013300000F03AF810BD000070B5002100230F2224
:10134000C47804B3154C246804F4E064C4F5E06484
:10135000210AC1F10403CA40447804FA03F18478F5
:101360001440214309010E4C0678A155047804F07D
:101370001F050124AC4005786D11AD0005F1E02595
:10138000C5F8004109E0047804F01F050124AC40D1
:10139000044D0678761145F8264070BD0CED00E04E
:1013A00000E400E080E100E002490143024A1160EC
:1013B000704700000000FA050CED00E070470000E7
:1013C00029B1064AD2690243044BDA6104E0034AB8
:1013D000D2698243014BDA6170470000001002407D
:1013E00029B1064A12690243044B1A6104E0034A18
:1013F00012698243014B1A617047000000100240DD
:1014000029B1064A92690243044B9A6104E0034AF7
:1014100092698243014B9A617047000000100240BC
:1014200029B1064AD2680243044BDA6004E0034A59
:10143000D2688243014BDA6070470000001002401E
:101440002DE9F04107460D46052D01D0BDE8F0819C
:101450000C4E002405E007F10B00005D3055601CC8
:10146000C4B2AC42F7DB04210648FFF747FC05494C
:101470000979884200D0E9E70248FFF795FA00BFF2
:10148000E4E700001600002010B54FF48051024838
:10149000FFF768FD10BD0000000C014010B54FF4CF
:1014A00080510248FFF75CFD10BD0000000C0140B8
:1014B00008B501210820FFF7A3FF4FF46040ADF805
:1014C000000018208DF8030003208DF80200694603
:1014D0000948FFF7B1FC4FF48050ADF80000102030
:1014E0008DF8030069460448FFF7A6FC4FF48051CD
:1014F0000148FFF737FD08BD000C014000B585B07D
:1015000001218803FFF75CFFFFF7D2FF0020ADF851
:1015100000004FF48270ADF802000020ADF8040026
:10152000ADF80600ADF808004FF40070ADF80A0001
:101530000020ADF80C00ADF80E000720ADF810004B
:101540006946044800F060F80121024800F038F8CC
:1015500005B000BD0038004010B500BF02210A48A8
:1015600000F044F80028F9D0FF21074800F04AF8BD
:1015700000BF0121044800F039F80028F9D00248E2
:1015800000F03DF8C0B210BD0038004010B5044670
:1015900000BF0221094800F029F80028F9D02146AF
:1015A000064800F02FF800BF0121044800F01EF8A3
:1015B0000028F9D0014800F022F810BD00380040A2
:1015C00021B1028842F04002028004E002884FF616
:1015D000BF731A4002807047012080F3108800BF5B
:1015E0007047002080F3108800BF7047024600203B
:1015F00013890B400BB1012000E000207047014629
:10160000888970478181704710B50022028802F4F2
:1016100041520B884C8823438C882343CC88234336
:101620000C8923434C8923438C892343CC8923434E
:101630001A430280838B4FF2FF74234083830B8A0B
:10164000038210BD70470000012080F3138800BFA3
:1016500000BF00BF00BF00BF00BFBFF34F8F00BF80
:1016600000BF00BF0948006800F4E0600849084373
:10167000001D0649086000BF00BF00BFBFF34F8FC9
:1016800000BF00BF00BF00BF00BFFDE70CED00E0E2
:101690000000FA052DE9F04786B080460E46154653
:1016A0000024A14648F0800ACDF804A000208DF85F
:1016B0000C008DF80D00082D0FDC002D0DDD8DF8D0
:1016C0000E5000BF06E016F8011B0DF10F0001558A
:1016D000601C84B2AC42F6DB02E000208DF80E0004
:1016E00001A90E48FFF7FAF9074601E0601C84B231
:1016F00039460A48FFF786FA012802D0B4F57A7F06
:10170000F4DBB4F57A7F05D139460448FEF7E6FEEE
:101710004FF00109484606B0BDE8F087006400407C
:1017200010B500F001F810BD0CB50020019000903C
:101730003348006840F480303149086000BF3048C9
:10174000006800F4003000900198401C019000985F
:1017500018B90198B0F5A06FF1D12948006800F4DC
:10176000003010B10120009001E0002000900098AE
:10177000012843D12348006840F010002149086047
:101780000846006820F0030008600846006840F042
:10179000020008601A4840681949486008464068D5
:1017A00048600846406840F48060486008464068E9
:1017B00020F47C1048600846406840F4E810486017
:1017C0000846006840F08070086000BF0C48006860
:1017D00000F000700028F9D00948406820F00300AC
:1017E000074948600846406840F00200486000BF72
:1017F0000348406800F00C000828F9D10CBD000037
:101800000010024000200240042808D14FF0E021DF
:10181000096941F004014FF0E022116107E04FF047
:10182000E021096921F004014FF0E02211617047C5
:101830007047000010B51348006840F001001149DE
:10184000086008464068104908400E49486008464C
:1018500000680E4908400B4908600846006820F4FB
:10186000802008600846406820F4FE0048604FF47D
:101870001F008860FFF754FF4FF0006004490860C4
:1018800010BD0000001002400000FFF8FFFFF6FE50
:1018900008ED00E010B50848007858B1002006496E
:1018A0000870FFF73DFA4FF480610448FFF758FBDA
:1018B000FEF702FE10BD00000B00002000080140F2
:1018C00010B50121880700F073F928B101218807BC
:1018D00000F06BF800F002F810BD0000024800783C
:1018E000401C0149087070470200002010B501211A
:1018F000054800F05DF928B10121034800F055F8D2
:1019000000F004F810BD00000004004010B51E48AF
:101910000078012806D11D480078401C1B4908703A
:10192000FFF730FC1A480078C0B11A480078401C14
:101930001849087008460078052804D10121164886
:10194000FFF70EFB0AE0134800780A2806D10020B2
:101950001049087001211048FFF704FB0F488078F8
:1019600080B10E480088401C0C4908800846008859
:101970000A2807DB02210A48FFF7F2FA002007498C
:101980008870088010BD00000100002003000020C6
:101990000A0000202200002000080140060000206C
:1019A00000100140CA4302827047CA430282704756
:1019B00021B1028842F00102028004E002884FF661
:1019C000FE731A400280704710B50446684884428E
:1019D00008D10121C014FFF723FD0021E014FFF717
:1019E0001FFDC4E0B4F1804F08D101210846FFF784
:1019F000F7FC00210120FFF7F3FCB8E05D488442CA
:101A000008D101210220FFF7EBFC00210220FFF7A3
:101A1000E7FCACE05848844208D101210420FFF7DC
:101A2000DFFC00210420FFF7DBFCA0E053488442E8
:101A300008D101210820FFF7D3FC00210820FFF77F
:101A4000CFFC94E04E48844208D101211020FFF7DA
:101A5000C7FC00211020FFF7C3FC88E049488442FE
:101A600008D101212020FFF7BBFC00212020FFF737
:101A7000B7FC7CE04448844208D101214014FFF7C0
:101A8000CFFC00216014FFF7CBFC70E03F4884429C
:101A900009D10121C804FFF7C3FC00214FF4002045
:101AA000FFF7BEFC63E03A48844209D101210805F2
:101AB000FFF7B6FC00214FF48010FFF7B1FC56E0B1
:101AC0003448844209D101214805FFF7A9FC0021CF
:101AD0004FF40010FFF7A4FC49E02F48844208D1DE
:101AE00001214020FFF77CFC00214020FFF778FC1B
:101AF0003DE02A48844208D101218020FFF770FC94
:101B000000218020FFF76CFC31E02548844208D199
:101B100001218015FFF764FC0021A015FFF760FC90
:101B200025E02048844209D101210804FFF778FC10
:101B300000214FF48030FFF773FC18E01A4884420C
:101B400009D101214804FFF76BFC00214FF400305C
:101B5000FFF766FC0BE01548844208D10121880498
:101B6000FFF75EFC00214FF48020FFF759FC10BD09
:101B7000002C01400004004000080040000C004020
:101B8000001000400014004000340140004C0140AF
:101B9000005001400054014000180040001C00406B
:101BA0000020004000400140004401400048014046
:101BB00030B50246002000230024158A05EA0103FF
:101BC000958905EA010413B10CB1012000E0002061
:101BD00030BD1AB183890B43838102E083898B4333
:101BE00083817047002202881D4B98420ED01D4B06
:101BF00098420BD0B0F1804F08D01B4B984205D0D3
:101C00001A4B984202D01A4B984204D14FF68F7368
:101C10001A404B881A43174B984207D0164B9842EC
:101C200004D04FF6FF431A40CB881A4302808B88BA
:101C300083850B8803850A4B98420BD0094B984249
:101C400008D00E4B984205D00D4B984202D00D4B58
:101C5000984201D10B7A03860123838270470000EA
:101C6000002C014000340140000400400008004006
:101C7000000C0040001000400014004000400140F3
:101C800000440140004801401FB501210846FFF70C
:101C900097FB4FF08040FFF797FE40F2E730ADF83A
:101CA00008004720ADF804000020ADF80A00ADF8A8
:101CB000060001A94FF08040FFF794FF012188073B
:101CC000FFF770FE012211469007FFF782FF1C20EC
:101CD0008DF8000000208DF8010001208DF8020031
:101CE0008DF803006846FFF727FB01218807FFF7FF
:101CF0005FFE01210220FFF763FB1848FFF764FE37
:101D0000C720ADF8080048F69F40ADF80400002059
:101D1000ADF80A00ADF8060001A91048FFF762FF10
:101D200001210E48FFF73EFE012211460B48FFF746
:101D300050FF1D208DF8000000208DF801000420C8
:101D40008DF8020001208DF803006846FFF7F4FAD1
:101D500001210248FFF72CFE1FBD000000040040D7
:101D600010B586B00020019002908DF80C008DF81F
:101D70000E008DF81700002405E000210DF10F0082
:101D80000155601CC4B2082CF7DB01AA00210948E8
:101D9000FEF77BFD9DF80C0048B99DF80E00002869
:101DA00004DD9DF80E1001A8FFF74AFB00BF06B046
:101DB00010BD00000064004000BFFEE710B5FFF753
:101DC0009DFB00F02BF800F045F800F00BF800F058
:101DD00001F810BD10B50249002000F011FA10BD45
:101DE0003300002000B585B00B4B0FCB8DE80F0002
:101DF0006946012000F02CFA401C08B900BFFEE73C
:101E000000BF04A90F2000F023FA9DF8100000285D
:101E1000F7D005B000BD00003C31000808B5012135
:101E20000420FFF7EDFA4FF48070ADF800001020A9
:101E30008DF8030003208DF8020069460448FEF780
:101E4000FBFF4FF480710248FFF78CF808BD0000DB
:101E50000008014010B50649064800F06BFC064931
:101E6000064800F07BFC0649064800F08BFC10BDDC
:101E7000E3150008D9150008891400089D1400080E
:101E80008D150008591500082DE9FE438046894646
:101E90004FEA8801491C4FF4407202EBC10000F088
:101EA00061F8002839D0222843D1404600F07AFA60
:101EB000051E31DD0A2D00DD0A252846FEF788F9CA
:101EC00007461FB94FF0FF30BDE8FE8301A802AB03
:101ED0002A4639460090404600F0F6FA0446002CA7
:101EE00001DC2046F0E7A5B2002610E0BDF80400B2
:101EF0000090A81B82B2B91902AB404600F05CFC0E
:101F00000446002C01DA2046DEE7301986B2AE42E4
:101F1000ECD13846FEF78BF90CE000234A4602214B
:101F2000404600F04DFD0446404501D02046CBE739
:101F300000E000BF00BF0120C6E770B504460D46B3
:101F400005E000232A460221204600F039FDA100C9
:101F5000491C4FF4407202EBC10000F003F8002866
:101F6000EFD070BD38B504461A49886880471949D2
:101F70000869804700BF1748006A10B11548406AD9
:101F800070B91448C169C4F3074088471148C16952
:101F9000C4F307208847E0B20E4AD16988470DE0B4
:101FA000200C8DF80000200A8DF80100E0B28DF8B9
:101FB000020008480321426A68469047054988693B
:101FC000804705460349486980470249C8688047F9
:101FD000284638BD58000020F8B504460E4617467E
:101FE0001F49886880471E490869804700BF1C4810
:101FF000006A10B11A48406AC0B91948C169C4F3EF
:10200000074088471648C169C4F307208847E0B2F3
:10201000134AD1698847002505E01149886980473E
:102020007055681C85B2BD42F7DB12E0200C8DF8BC
:102030000000200A8DF80100E0B28DF80200084887
:102040000321426A6846904705483946026A30468D
:1020500090470349486980470149C8688047F8BDEF
:102060005800002038B504460D461A498868804754
:1020700018490869804744F004041648406A90B93A
:102080001448C169C4F3074088471248C169C4F3C2
:1020900007208847E0B20F4AD16988470D48C169D7
:1020A000284688470FE0200C8DF80000200A8DF8A4
:1020B0000100E0B28DF802008DF8035005480421BC
:1020C000426A684690470349486980470149C868A1
:1020D000804738BD58000020F8B504460E46174624
:1020E0001E49886880471D490869804744F00404F8
:1020F0001A48406AC0B91948C169C4F30740884703
:102100001648C169C4F307208847E0B2134AD16971
:102110008847002505E0705D104AD1698847681C32
:1021200085B2BD42F7DB12E0200C8DF80000200ADA
:102130008DF80100E0B28DF8020008480321426AE0
:102140006846904705483946426A304690470349F9
:10215000486980470149C8688047F8BD5800002099
:1021600010B5044600BF082C02DD4FF0FF3010BD53
:1021700000BFA100491C4FF4807202EBC100102186
:10218000FFF770FF00BFA100491C4FF4807202EB03
:10219000C100FFF7E7FE0028F5D1A100491C4FF46C
:1021A000007202EBC1001F21FFF75CFF0120A0407D
:1021B0000F49098881430E4801800120A0400D4944
:1021C000098881430B48018000200B4921F8140045
:1021D0000A49085500BFA100491C4FF4407202EBA8
:1021E000C100FFF7BFFE0028F5D10120BFE70000C6
:1021F0004C0000204E000020C400002050000020B1
:1022000070B505460C46062D1CD2DFE805F0030725
:102210000B0F1317204600F033FE16E0204600F0A7
:1022200091FD12E0207800F057FE70BD00F0B8FD7F
:1022300020700AE0204600F062FE06E0204600F032
:10224000B4FD02E04FF0FF30EFE700BF0020ECE705
:102250002DE9FC4106460C46002500200090019027
:10226000102E79D2DFE806F0080B1A161E2226324D
:102270003F5154585C5D616C00F057FE6FE01CB13B
:102280000094009808300190DDE9000100F0A1FD04
:10229000BDE8FC81208800F017FD60E000F028FD1B
:1022A00020805CE0208800F0DCFD58E000F035FD87
:1022B000208054E0208801124FF49850FFF7D2FE9E
:1022C00021784FF4A050FFF7CDFE48E04FF4A05026
:1022D000FFF748FE07464FF49850FFF743FE07EB21
:1022E000002020803BE01F48807820701D48C07887
:1022F00060701C480079A0701A484079E070194855
:10230000807920710020607129E000F09EFE26E0B7
:10231000204600F0B4FE22E0204600F03FFE1EE022
:102320001DE0207800F0D7FEB2E700F080FEC5B2D5
:1023300068B2401C10B94FF0FF30A9E725700EE0DD
:1023400000F068FEC5B268B2401C18B94FF0FF300B
:102350009EE701E0257002E04FF0FF3098E700BFF4
:10236000002095E75800002010B504466FF00400E7
:10237000FFF74AFAE11704EB5171C1F3C701074AAD
:1023800011701046007800EB4001C1EBC0104FF611
:10239000FF7101EAC0000249088010BD0C00002056
:1023A0000E00002070B504460025002600BFA100E5
:1023B000491C4FF4185202EBC100FFF7D3FD06464B
:1023C000A100491C4FF4185202EBC10101F58070C5
:1023D000FFF7C8FD00EB062086B2AEB1A100491C94
:1023E0004FF4185202EBC100FFF7BCFD0546A100F7
:1023F000491C4FF4185202EBC10101F58070FFF740
:10240000B1FD00EB052085B2B542D0D1284670BDA4
:1024100070B504460025002600BFA100491C4FF4FA
:10242000005202EBC100FFF79DFD0646A100491CCA
:102430004FF4005202EBC10101F58070FFF792FDED
:1024400000EB062086B2AEB1A100491C4FF4005249
:1024500002EBC100FFF786FD0546A100491C4FF4C1
:10246000005202EBC10101F58070FFF77BFD00EB2C
:10247000052085B2B542D0D1284670BDFFF7DAF904
:10248000FEF753FF4820FFF76FFFFEF73FF8FEF718
:10249000CBFEFEF7BFFDFEF72FFEFDF7EDFFFFF7CA
:1024A000F3FBFEF738FF01200649087009E0FEF74C
:1024B0000DFEFEF7E3FEFEF761FAFEF725FFFFF7DC
:1024C000E9F9F4E70A0000202DE9FC4704468A46B2
:1024D00016461F46DDF82880002500BF082C02DDC7
:1024E000681EBDE8FC8700BFA100491C002202EB6A
:1024F000C100FFF737FD814600F00F00022802D02F
:10250000042802D100E000BF02E06FF00400E8E719
:1025100000BF00BF16B96FF00D00E2E700BF8248B0
:1025200030F81400E8B91AE02046FFF73BFF0546F3
:10253000A100491C4FF4407202EBC100FFF712FDED
:1025400010B96FF00300CCE70120A040774909885B
:10255000084010B10DB90020C3E705B100E0E3E782
:1025600000BF09F00700022802D004287ED158E0FD
:102570006D4830F81400E8BB08226946204600F098
:10258000E7FAA100491C4FF4807202EBC100402120
:10259000FFF768FD00BFA100491C4FF4807202EBF9
:1025A000C100FFF7DFFC0028F5D19DF8000038706E
:1025B0009DF8010078709DF80200B8709DF8030046
:1025C000F8709DF80400A8F800009DF8050098F840
:1025D000001000EB0120A8F800009DF80600524909
:1025E00021F814009DF8070011F8141000EB0120E9
:1025F0004D4900E004E021F8140080204C490855C2
:10260000494830F81400B04201DD354602E0464842
:1026100030F814502E462A465146204600F098FACB
:1026200056E0414830F81400B0BB0222694620460B
:1026300000F08EFAA100491C4FF4807202EBC10039
:102640004021FFF70FFD00BFA100491C4FF480722D
:1026500002EBC100FFF786FC0028F5D19DF80000D1
:10266000314921F814009DF8010000E028E011F83C
:10267000141000EB0120801E2B4921F8140008469D
:1026800030F8140040F2EA51884206DD2046FFF798
:1026900067FD6FF47A7024E702E080202449085532
:1026A000214830F81400B04201DD354602E01E48F2
:1026B00030F814502A465146204600F049FA07E007
:1026C0002946204600F086FA174820F8145000BF2B
:1026D00000BFA100491C4FF4807202EBC1004021F1
:1026E000FFF7C0FC00BFA100491C4FF4807202EB51
:1026F000C100FFF737FC0028F5D10B4830F8140073
:10270000401B094921F81400084630F8140030B184
:102710000748005D40F001000549085502E000202F
:10272000034908552846DCE6C40000204C00002080
:102730005000002000B131B9054A064B9A60064BA3
:10274000044AD36002E0034A9060D1607047000001
:10275000E92C000858000020EB2C000800B131B92A
:10276000054A064B1A61064B044A536102E0034ACC
:102770001061516170470000EF2C000858000020E4
:10278000ED2C000800BF094A128802F40072002AEA
:10279000F9D000B131B9064A044B9A61054B034A9E
:1027A000D36102E0014A9061D16170475800002076
:1027B000252F0008292F00082DE9F05F04468B46DD
:1027C00015461E46DDF828A00027B84600BF082C95
:1027D00002DD781EBDE8F09F00BFA100491C002269
:1027E00002EBC100FFF7BEFB00F00F00022802D091
:1027F000042802D100E000BF02E06FF00400E9E726
:1028000000BF00BF15B96FF00D00E3E700BF96F8F9
:102810000090707869F31F208146B07869F31F201B
:102820008146F07869F31F208146A100491C0022EF
:1028300002EBC100FFF796FB0020B9F1000F01D1B8
:10284000012100E00021084010B16FF00B00C1E74A
:10285000A100491C002202EBC100FFF783FB00200E
:10286000BAF1000F01D1012100E00021084010B1B0
:102870006FF00A00AEE7A100491C4FF4407202EB72
:10288000C100FFF76FFB0746422F04D0222F02D072
:102890006FF006009EE7A100491C4FF4406202EB76
:1028A000C10004223146FFF717FC4FEA2A21A2009B
:1028B000521C4FF4805303EBC200FFF7D3FB0AF026
:1028C000FF01A200521C4FF4805303EBC20202F539
:1028D0008070FFF7C7FBA100491C4FF4F85202EBD0
:1028E000C100FFF73FFB4FF6FF7101EA8028454525
:1028F00000DD45461CE02046FFF78AFD8046A1002A
:10290000491C4FF4407202EBC100FFF72BFB10B9DA
:102910006FF003005EE70120A040284909880840C5
:1029200018B1454501DD002054E7454500DC00E0D5
:10293000E1E700BF2A465946204600F07EF9A10093
:10294000491C4FF4807202EBC1002021FFF78AFB83
:1029500000BFA100491C4FF4807202EBC100FFF7D9
:1029600001FB0028F5D125E0A100491C4FF40072BD
:1029700002EBC100FFF7F6FA00F01F0707F01000A6
:1029800048B1A100491C4FF4007202EBC1001021B4
:10299000FFF768FB0FE007F0080058B1A100491CE1
:1029A0004FF4007202EBC1000821FFF75BFB6FF0F0
:1029B0000C000FE7D8E700BF28460BE74C000020CB
:1029C000F8B504460E4617461D4600BF082C02DD2A
:1029D0004FF0FF30F8BD00BF012E04D0022E0ED004
:1029E000042E0ED10CE0042269464FF47060FFF70C
:1029F000F3FA009810B96FF00200EBE700BF00BFD8
:102A000002E06FF00400E5E700BF05F0040010B13C
:102A10006FF00500DEE705B3012E02D0022E1AD1B9
:102A200006E005F0210010B96FF00500D2E713E0D1
:102A300005F0200028B105F0800010B96FF0050006
:102A4000C8E705F0100028B105F0800010B96FF05C
:102A50000500BFE700E000BF00BF2046FFF780FB96
:102A600005F0F00242EA0601A200521C002303EB2B
:102A7000C200FFF7F7FA7FB9304807880088401C8A
:102A80002E490880084600884FF6F071884203D12D
:102A90004FF44040294908803912A200521C4FF4DB
:102AA000806303EBC200FFF7DDFAF9B2A200521C0B
:102AB0004FF4806303EBC20202F58070FFF7D2FA95
:102AC000A100491C4FF4807202EBC1000121FFF705
:102AD000C9FA00BFA100491C4FF4807202EBC1008B
:102AE000FFF740FA0028F5D10120A04014490988D9
:102AF00081431348018005F00100A0401049098876
:102B000008430F4908800120A0400E4909888143ED
:102B10000C48018000200C4921F814000B4908558D
:102B200000BFA100491C4FF4407202EBC100FFF747
:102B300019FA0028F5D060B24CE700004A000020E6
:102B40004C0000204E000020C40000205000002057
:102B50002DE9F04704460F4616460025A8460EB953
:102B6000BDE8F087A100491C4FF4205202EBC101DF
:102B700001F58070FFF7F6F98146A100491C4FF47A
:102B8000205202EBC100FFF7EDF909EB002085B2FE
:102B90002902A000C01C01EBC0083246394640465D
:102BA000FFF71AFAA81985B22912A200521C4FF495
:102BB000205303EBC200FFF755FAE9B2A200521C02
:102BC0004FF4205303EBC20202F58070FFF74AFA7C
:102BD00000BFC5E72DE9F04104460E460025A100DF
:102BE000491C4FF4205202EBC10101F58070FFF740
:102BF000B9F90746A100491C4FF4205202EBC1006D
:102C0000FFF7B0F907EB002085B2A81985B22912A9
:102C1000A200521C4FF4205303EBC200FFF722FA2C
:102C2000E9B2A200521C4FF4205303EBC20202F59A
:102C30008070FFF717FABDE8F0812DE9F0470446F0
:102C40000F4616460025A8460EB9BDE8F087A1003C
:102C5000491C4FF4105202EBC10101F58070FFF7DF
:102C600081F98146A100491C4FF4105202EBC100CA
:102C7000FFF778F909EB002085B22902A000801C3B
:102C800001EBC008324639464046FFF725FAA8193D
:102C900085B22912A200521C4FF4105303EBC2005C
:102CA000FFF7E0F9E9B2A200521C4FF4105303EB16
:102CB000C20202F58070FFF7D5F900BFC5E70146F3
:102CC000087870470170704770B50446E5B2261267
:102CD00005F0F0014FF4A850FFF7C4F931464FF466
:102CE000B850FFF7BFF970BD704770477047704725
:102CF00070B50026002400254FF4A850FFF732F9E4
:102D000000F0F0064FF4B850FFF72CF904462546C2
:102D100006EB052085B2284670BD70B5002600245C
:102D200000254FF4B050FFF71DF906464FF4C05090
:102D3000FFF718F90446254606EB052085B228461C
:102D400070BD000010B50446062221464FF4106005
:102D5000FFF742F9042204F10E019001FFF73CF95C
:102D6000042204F10A014FF4A060FFF735F90422B0
:102D7000A11D4FF47060FFF72FF907480078A07489
:102D800005484178E17481782175C17861750348FF
:102D90000078A07510BD0000800000208400002095
:102DA00010B50020FFF7DEF810BD70B504464FF4F3
:102DB000D850FFF7D7F820704FF4D050FFF7D2F873
:102DC00005464FF4C850FFF7CDF805EB00206080B2
:102DD00070BD2DE9F04105460E46002700F0A5F82C
:102DE000F5B100BF00240AE0285D384447B2102F37
:102DF00003DD4FF0FF30BDE8F081601C44B2082CC9
:102E0000F2DB00240AE0295DA200521C4FF4F853C3
:102E100003EBC200FFF726F9601C44B2082CF2DB7A
:102E2000EEB10027002409E0305D384447B2102F8E
:102E300002DD4FF0FF30DEE7601C44B2082CF3DB0C
:102E400000240AE0315DA200521C4FF4F05303EB62
:102E5000C200FFF707F9601C44B2082CF2DB002027
:102E6000C9E770B50446E5B2261229464FF4B050C2
:102E7000FFF7F8F831464FF4C050FFF7F3F870BD94
:102E800010B50446062221464FF41060FFF724F9DE
:102E9000042204F10E019001FFF71EF9042204F14F
:102EA0000A014FF4A060FFF717F90422A11D4FF4A7
:102EB0007060FFF711F9A07C05490870E07C48704C
:102EC000207D8870607DC870A07D0249087010BDAB
:102ED000800000208400002070B50446002524F006
:102EE0003A0008B1681E70BD0020FFF73BF80546A8
:102EF000254329460020FFF7B5F80020F3E710B579
:102F0000044621784FF4D850FFF7ACF860880112DE
:102F10004FF4C850FFF7A6F8A1784FF4D050FFF750
:102F2000A1F810BD00207047704700B585B006229B
:102F300069464FF41060FFF74FF8042204A990018E
:102F4000FFF74AF8042203A94FF4A060FFF744F802
:102F5000042202A94FF47060FFF73EF880210020A0
:102F6000FFF780F80020FEF7FDFF062269464FF4C8
:102F70001060FFF7B1F8042204A99001FFF7ACF844
:102F8000042203A94FF4A060FFF7A6F8042202A9C7
:102F90004FF47060FFF7A0F805B000BD70B50446AF
:102FA00000254FF43850FEF7DDFF0546C5F38010CD
:102FB000207005F03800202802D0382803D100BF47
:102FC0000120607002E00020607000BF00BF05F0CB
:102FD0003800102805D0182802D0202804D100BFBE
:102FE00000BF0120A07002E00020A07000BF00BF61
:102FF00005F03800082805D0182802D0202804D170
:1030000000BF00BF0120E07002E00020E07000BFC0
:1030100000BF70BD10B54FF43850FEF7A3FF00F0AD
:10302000010008B1012400E00024204610BD10B5C5
:1030300000244FF43850FEF795FF00F0300008B13F
:10304000012400E00024204610BD10B54FF4385094
:10305000FEF788FF044624F0800421464FF43850E0
:10306000FFF700F84FF43850FEF77CFF044644F0B9
:10307000800421464FF43850FEF7F4FF10BD70B5C0
:10308000054600242878012802D144F0400401E0DC
:1030900024F040046878012802D144F0380412E09A
:1030A000E878012808D1A878012802D144F0180452
:1030B00009E044F0080406E0A878012802D144F0B1
:1030C000100400E000BF21464FF43850FEF7CAFF5D
:1030D000FFF7BBFF70BD70B5054600244FF43850B4
:1030E000FEF740FF044604F0400010B94FF0FF30F7
:1030F00070BD24F03804012D02D144F0300401E009
:1031000044F0380421464FF43850FEF7ABFFFFF788
:103110009CFF4FF43850FEF725FF0446012D04D1E3
:1031200004F0300030B10020E2E704F0380008B1CC
:103130000020DDE74FF0FF30DAE700000202020274
:103140000202020202020202020202026C310008C2
:10315000000000208800000028010008F431000869
:1031600088000020B00600004401000800000000B4
:10317000000000000000000000000000000000004F
:10318000000000000000000000000000000000023D
:103190000202020202020202020202020202020011
:1031A00008DC00ABCDC0A8017BFFFFFF00C0A80179
:1031B00001000000000100C000000000000000004D
:1031C000000000000102573535303000E92C0008BE
:1031D000EB2C0008EF2C0008ED2C0008BF2C000899
:1031E000C52C0008000000000000000000000000E6
:0431F00000000000DB
:04000005080000ED02
:00000001FF
