:020000040800F2
:100000008006002089010008050D0008C90C0008C1
:10001000010D000843020008451700080000000019
:10002000000000000000000000000000291100088E
:10003000350A0008000000002D100008C912000851
:10004000A3010008A3010008A3010008A301000800
:10005000A3010008A3010008A3010008A3010008F0
:10006000A3010008A3010008A3010008A3010008E0
:10007000A3010008A3010008A3010008A3010008D0
:10008000A3010008A3010008A3010008A3010008C0
:10009000ED160008A3010008A3010008A301000851
:1000A000A3010008A3010008A3010008A3010008A0
:1000B0002D13000879130008A3010008A30100080C
:1000C000A3010008A3010008A3010008A301000880
:1000D000A3010008A3010008A3010008A301000870
:1000E000A3010008A3010008A301000800F002F822
:1000F00000F03AF80AA090E8000C82448344AAF188
:100100000107DA4501D100F02FF8AFF2090EBAE885
:100110000F0013F0010F18BFFB1A43F0010318473B
:10012000DC160000FC160000103A24BF78C878C125
:10013000FAD8520724BF30C830C144BF04680C60ED
:10014000704700000023002400250026103A28BF35
:1001500078C1FBD8520728BF30C148BF0B60704739
:100160001FB51FBD10B510BD00F031F81146FFF7E7
:10017000F7FF01F025FB00F04FF803B4FFF7F2FFA3
:1001800003BC00F057F800000948804709480047C1
:10019000FEE7FEE7FEE7FEE7FEE7FEE7FEE7FEE737
:1001A000FEE7FEE704480549054A064B7047000094
:1001B000CD120008ED00000880000020800600201D
:1001C000800200208002002070477047704775460B
:1001D00000F02CF8AE4605006946534620F00700B3
:1001E000854618B020B5FFF7DDFFBDE820404FF091
:1001F00000064FF000074FF000084FF0000B21F011
:100200000701AC46ACE8C009ACE8C009ACE8C009DD
:10021000ACE8C0098D46704710B50446AFF30080C6
:100220002046BDE81040FFF7A8BF00000048704717
:100230002000002001491820ABBEFEE72600020086
:10024000704700BFFEE721B1012907D002290FD175
:1002500009E0826842F0800282600AE0826842F42B
:100260000042826005E0826842F40002826000E0A1
:1002700000BF00BF704700001FB51E4800F03CF8EB
:1002800001A800F02EFA00F0FFF80121480600F066
:10029000CFFE00208DF80A008DF80B008DF80C00C1
:1002A0008DF80D008DF80E008DF80F008DF806000A
:1002B0008DF8070005208DF8080000208DF8090052
:1002C0000920ADF8040001A90A4800F008F914203B
:1002D0008DF8000000208DF8010005208DF8020047
:1002E00001208DF80300684600F014FD00F0A4F82A
:1002F0001FBD00000064004010B504460B48844256
:1003000009D10121480600F0A3FE00214FF0007042
:1003100000F09EFE08E00121880600F099FE002111
:100320004FF0806000F094FE10BD000000640040BB
:1003300010B50021837A012202FA03F13D4A1268C6
:1003400042F001023B4B1A603A4A1C3212688A435F
:10035000384B1C331A60027BCAB9364A0C32126819
:100360008A43344B0C331A604288C38842EA034301
:10037000304A4032847A42F834300288838842EA34
:1003800003432C4A4032847A02EBC4025360027B5E
:10039000012A19D1274A0C3212680A43254B0C3323
:1003A0001A604288038842EA0343224A4032847A30
:1003B00042F83430C288838842EA03431D4A4032FF
:1003C000847A02EBC4025360C27A3AB9194A121D08
:1003D00012688A43174B1B1D1A6006E0154A121D4E
:1003E00012680A43134B1B1D1A60028932B9114A65
:1003F000143212688A430F4B14331A600289012A9F
:1004000006D10C4A143212680A430A4B14331A609C
:10041000427B012A06D1074A1C3212680A43054B67
:100420001C331A60034A126822F00102014B1A6061
:1004300010BD0000006600401FB500208DF80A00C6
:100440008DF80B0001208DF80C008020ADF8000025
:100450000020ADF802004EF6FF70ADF804004FF634
:10046000FF70ADF806000020ADF8080001208DF8FF
:100470000D006846FFF75CFF01220221014800F0F1
:1004800025F81FBD0064004008B50121042000F0DC
:10049000EFFD4FF48050ADF8000003208DF802000E
:1004A00018208DF803006946074800F0C4FA4FF49D
:1004B0000060ADF8000048208DF80300694602484E
:1004C00000F0B9FA08BD0000000801401AB1436904
:1004D0000B43436102E043698B434361704730B58E
:1004E000024600200023146824F0020414601468FB
:1004F00044F00104146000E05B1C546804F0010443
:100500001CB94FF6FF74A342F6D1546804F00104FD
:100510000CB900206CE08C79012C04D1146844F0F3
:100520008004146003E0146824F080041460CC7923
:10053000012C04D1146844F04004146003E01468F2
:1005400024F0400414600C7A012C04D1146844F0A7
:100550002004146003E0146824F0200414604C7A32
:10056000012C04D1146844F01004146003E01468F2
:1005700024F0100414608C7A012C04D1146844F027
:100580000804146003E0146824F008041460CC7AB2
:10059000012C04D1146844F00404146003E01468CE
:1005A00024F0040414608C78A407CD7844EA056430
:1005B0000D7944EA05444D7944EA05540D886D1ED1
:1005C0002C43D461146824F001041460002300E07B
:1005D0005B1C546804F001041CB14FF6FF74A34285
:1005E000F6D1546804F001040CB1002000E00120B1
:1005F00030BD10B500F5D87303EB01131B6803F091
:1006000004031372137A53B900F5D87303EB011383
:100610001B6840F2FF7404EA5353136009E000F5CD
:10062000D87303EB01131B686FF0604404EAD30333
:10063000536000F5D87303EB01131B6803F002034A
:10064000537200F5D87303EB01135B6803F00F03DB
:10065000937200F5D87303EB01135B681B0AD37424
:1006600000F5D87303EB01139B68D37200F5D873C0
:1006700003EB01139B681C0A147300F5D87303EB9A
:1006800001139B681C0C547300F5D87303EB011322
:100690009B681B0E937300F5D87303EB0113DB68A3
:1006A000D37300F5D87303EB0113DB681C0A1474D1
:1006B00000F5D87303EB0113DB681C0C547400F5D0
:1006C000D87303EB0113DB681B0E937421B9C36865
:1006D00043F02003C36003E0036943F02003036198
:1006E00010BD00218171C171017241728172C172AC
:1006F0008170C170032101710221417101210180CA
:10070000704710B502460020936803F08063B3F190
:10071000806F00D110E0936803F00063B3F1006FC5
:1007200001D1012008E0936803F08053B3F1805FAA
:1007300001D1022000E00420042874D002F5C07327
:1007400003EB00131B6803F0010402F5C07303EB15
:1007500000131C600B7A7BB94B7A0C8843EA445334
:1007600002F5C07404EB00142468234302F5C0743E
:1007700004EB0014236010E00B7A4C6843EAC403D6
:100780004C7A234302F5C07404EB0014246823431D
:1007900002F5C07404EB001423608B7A03F00F039E
:1007A0008B7202F5C07303EB00135B6823F00F0438
:1007B00002F5C07303EB00135C6002F5C07303EB3A
:1007C00000135B688C7A234302F5C07404EB0014B9
:1007D00063608B7B1C064B7B44EA03440B7B44EA3F
:1007E0000323CC7A234302F5C07404EB0014A36006
:1007F0008B7C1C064B7C44EA03440B7C44EA0323B9
:10080000CC7B234302F5C07404EB0014E36002F5D3
:10081000C07303EB00131B6843F0010402F5C073BF
:1008200003EB00131C6010BD10B50246002321B17C
:10083000012907D002290FD109E090681D4C00EA78
:1008400004030BE090681C4C00EA040306E0906887
:100850001A4C00EA040301E0002300BF00BF184C5B
:10086000181BA34216D007DC83B16FF080601844D8
:1008700070B1022818D111E0B0F5007F10D0114CF2
:10088000204448B1B0F5003F0ED10BE002230DE04B
:1008900000230BE0002309E0002307E0012305E02B
:1008A000012303E0012301E0002300BF00BFD8B211
:1008B00010BD000003000004000300080000031046
:1008C000000100080001FFF710B510211B4800F0DF
:1008D00048F94021194800F044F90121184800F076
:1008E00040F94FF48061164800F03BF94FF4805115
:1008F000134800F036F94FF40051114800F031F977
:100900004FF480410E4800F02CF940210D4800F0D2
:1009100028F980210B4800F024F94FF400710948B0
:1009200000F01FF94FF48071044800F01AF94FF4F9
:100930000071034800F015F910BD000000080140E7
:10094000000C01400010014010B510211B4800F0C0
:1009500006F94021194800F002F90121184800F079
:10096000FEF84FF48061164800F0F9F84FF480511A
:10097000134800F0F4F84FF40051114800F0EFF87C
:100980004FF480410E4800F0EAF840210D4800F095
:10099000E6F880210B4800F0E2F84FF400710948B6
:1009A00000F0DDF84FF48071044800F0D8F84FF4FF
:1009B0000071034800F0D3F810BD000000080140AA
:1009C000000C01400010014070B504460D460F4870
:1009D0000078012818D004200D49087002204870C2
:1009E00008468470702D02D10120C87002E00220F8
:1009F0000749C8700421064800F00CF80449087142
:100A00000521034800F092FB70BD000001000020AA
:100A10000800002010B502460B460020002104E02B
:100A2000545C0444E0B24C1CE1B29942F8DBC0F1E2
:100A3000FF0010BD70472DE9F04102460025002659
:100A4000002000230024002791F803C00CF00F05BC
:100A500091F803C00CF0100CBCF1000F03D091F81A
:100A600002C04CEA050591F800C0BCF1000F31D07E
:100A7000146800202BE04FF0010C0CFA00F3B1F8E1
:100A800000C00CEA03069E4220D183004FF00F0CF9
:100A90000CFA03F7BC4305FA03FC4CEA040491F892
:100AA00003C0BCF1280F06D14FF0010C0CFA00FC7A
:100AB000C2F814C00AE091F803C0BCF1480F05D198
:100AC0004FF0010C0CFA00FCC2F810C0401C0828C2
:100AD000D1D31460B1F800C0BCF1FF0F34DD54680D
:100AE00000202EE000F1080C4FF0010808FA0CF38A
:100AF000B1F800C00CEA03069E4221D183004FF0FA
:100B00000F0C0CFA03F7BC4305FA03FC4CEA04048F
:100B100091F803C0BCF1280F05D100F1080C08FAC8
:100B20000CF8C2F8148091F803C0BCF1480F07D14B
:100B300000F1080C4FF0010808FA0CF8C2F8108018
:100B4000401C0828CED35460BDE8F0810246002046
:100B500093680B400BB1012000E000207047416119
:100B6000704701617047000010B508215148FFF738
:100B7000EDFF08B9012000E000204F490978084343
:100B80004D49087020214B48FFF7E0FF08B90120CC
:100B900000E00020484949780843474948708021CF
:100BA0004448FFF7D3FF08B9012000E00020424984
:100BB000897808434049887002214048FFF7C6FF02
:100BC00008B9012000E000203B49C97808433A49B0
:100BD000C8704FF400613948FFF7B8FF08B9012029
:100BE00000E00020344909790843334908714FF483
:100BF00000613348FFF7AAFF08B9012000E0002098
:100C00002D49497908432C4948714FF480612C489B
:100C1000FFF79CFF08B9012000E0002026498979F0
:100C20000843254988714FF480612248FFF78EFF01
:100C300008B9012000E000201F49C97908431E4976
:100C4000C8714FF400711B48FFF780FF08B90120FD
:100C500000E000201849097A0843174908724FF448
:100C600080511748FFF772FF08B9012000E000200B
:100C70001149497A08431049487204211148FFF785
:100C800065FF08B9012000E000200B49897A08437C
:100C9000094988724FF480710848FFF757FF08B977
:100CA000012000E000200449C97A08430249C872C3
:100CB00010BD00000008014014000020000C01409D
:100CC000001001400014014000BFFEE708B50121FB
:100CD000102000F0CDF90420ADF8000003208DF8BD
:100CE000020010208DF8030069460448FFF7A3FEB8
:100CF00004210248FFF735FF08BD00000010014045
:100D000000BFFEE7704710B54FF4A06000F03AF85E
:100D100010BD000070B5002100230F22C47804B379
:100D2000154C246804F4E064C4F5E064210AC1F1C0
:100D30000403CA40447804FA03F184781440214340
:100D400009010E4C0678A155047804F01F05012412
:100D5000AC4005786D11AD0005F1E025C5F8004106
:100D600009E0047804F01F050124AC40044D067826
:100D7000761145F8264070BD0CED00E000E400E07F
:100D800080E100E002490143024A1160704700001F
:100D90000000FA050CED00E010B500242CE0601C0A
:100DA000C4B2042022490870012048708870FF20D6
:100DB000C87004211E48FFF72DFE1D49087105214A
:100DC0001B4800F0B3F900201A49087004201A49A2
:100DD000087000BF184800780428FBD01648007837
:100DE000032803D000201549087006E0032C03DB1C
:100DF00001201249087000E0D1E700BF0F480078D9
:100E0000012813D004200A490870022048700120EC
:100E1000887009480078C87004210548FFF7FAFD7A
:100E2000034908710521024800F080F910BD000057
:100E30000800002000000020020000200100002027
:100E400008B501213C2000F013F94FF4A870ADF86B
:100E5000000003208DF8020010208DF80300694681
:100E60002C48FFF7E8FD47F20160ADF800000320D1
:100E70008DF8020010208DF8030069462648FFF720
:100E8000DAFD4FF43070ADF8000003208DF8020059
:100E900010208DF8030069462048FFF7CCFDFFF7CE
:100EA00013FD4FF4D560ADF8000003208DF802006B
:100EB00004208DF8030069461648FFF7BCFD40F694
:100EC0000210ADF8000003208DF8020004208DF818
:100ED000030069461048FFF7AEFD4FF4E050ADF84F
:100EE000000003208DF8020004208DF803006946FD
:100EF0000A48FFF7A0FD0420ADF8000003208DF89C
:100F0000020004208DF8030069460548FFF793FDB1
:100F100008BD000000080140000C01400010014025
:100F20000014014038B5FFF7CFFCFFF71DFE00208D
:100F30000090002420E01DF8040004EB4401304A36
:100F4000515C08430DF804001DF8041004EB440044
:100F5000401C105C41EA4000C0B20DF804001DF8CE
:100F6000041004EB4400801C105C41EA8000C0B215
:100F70000DF80400601CC4B2042CDCDBFFF7E4FCB9
:100F8000FFF7F2FD00200090002422E01DF804008D
:100F900004EB44011A4A515C40EA0110C0B20DF85A
:100FA00004001DF8041004EB4400401C105C41EAEE
:100FB0004010C0B20DF804001DF8041004EB44000A
:100FC000801C105C41EA8010C0B20DF80400601C67
:100FD000C4B2042CDADB9DF800100220FFF7F4FC09
:100FE0009DF801100320FFF7EFFC9DF8021004208C
:100FF000FFF7EAFC9DF803100520FFF7E5FC38BD7C
:10100000140000208178012909D1C178FF2906D177
:101010000178042903D10121034A117002E0022161
:10102000014A117070470000020000207047000064
:1010300029B1064AD2690243044BDA6104E0034A4B
:10104000D2698243014BDA61704700000010024010
:1010500029B1064A12690243044B1A6104E0034AAB
:1010600012698243014B1A61704700000010024070
:1010700029B1064A92690243044B9A6104E0034A8B
:1010800092698243014B9A61704700000010024050
:1010900029B1064AD2680243044BDA6004E0034AED
:1010A000D2688243014BDA607047000000100240B2
:1010B0002DE9F04107460D46052D04D002201849C0
:1010C0000870BDE8F081174E002405E007F10B0021
:1010D000005D3055601CC4B2AC42F7DB04211148FE
:1010E000FFF798FC0F490979884203D002200C4988
:1010F0000870E6E70B484078012804D0022806D0A3
:10110000032806D104E00748FFF77CFF05E004E070
:1011100003E002200249087000BF00BF00BFD0E713
:10112000020000200D000020704700002DE9F04370
:1011300085B006460D460024A0464FF08409CDF840
:10114000009000208DF808008DF80900082D0FDCB4
:10115000002D0DDD8DF80A5000BF06E016F8011BCA
:101160000DF10B000155601C84B2AC42F6DB02E0CD
:1011700000208DF80A0069460E48FFF7C2FA0746BC
:1011800001E0601C84B239460A48FFF74DFB012894
:1011900002D0B4F57A7FF4DBB4F57A7F05D1394615
:1011A0000448FFF750F84FF00108404605B0BDE88D
:1011B000F08300000064004010B500F001F810BD9D
:1011C0000CB50020019000903348006840F4803056
:1011D0003149086000BF3048006800F400300090DA
:1011E0000198401C0190009818B90198B0F5A06FC3
:1011F000F1D12948006800F4003010B101200090BE
:1012000001E0002000900098012843D123480068A5
:1012100040F01000214908600846006820F00300F3
:1012200008600846006840F0020008601A484068FC
:10123000194948600846406848600846406840F4DC
:10124000806048600846406820F47C10486008468A
:10125000406840F4E81048600846006840F080703C
:10126000086000BF0C48006800F000700028F9D04A
:101270000948406820F00300074948600846406874
:1012800040F00200486000BF0348406800F00C00D6
:101290000828F9D10CBD00000010024000200240D7
:1012A000042808D14FF0E021096941F004014FF012
:1012B000E022116107E04FF0E021096921F004010B
:1012C0004FF0E022116170477047000010B51348DD
:1012D000006840F001001149086008464068104964
:1012E00008400E494860084600680E4908400B490E
:1012F00008600846006820F48020086008464068BE
:1013000020F4FE0048604FF41F008860FFF754FF90
:101310004FF000600449086010BD0000001002405A
:101320000000FFF8FFFFF6FE08ED00E010B5012118
:10133000880700F039F928B10121880700F030F85A
:1013400000F002F810BD00000948007804280DD113
:1013500008480078401C0749087008460078C828EB
:1013600004DB00200870032001490870704700006A
:10137000020000200000002010B50121054800F007
:1013800013F928B10121034800F00AF800F004F82D
:1013900010BD0000000400407047CA43028270473D
:1013A000CA430282704721B1028842F001020280E2
:1013B00004E002884FF6FE731A4002807047000076
:1013C00010B504466848844208D10121C014FFF7D3
:1013D0005FFE0021E014FFF75BFEC4E0B4F1804F34
:1013E00008D101210846FFF733FE00210120FFF755
:1013F0002FFEB8E05D48844208D101210220FFF7AA
:1014000027FE00210220FFF723FEACE0584884426B
:1014100008D101210420FFF71BFE00210420FFF763
:1014200017FEA0E05348844208D101210820FFF7AD
:101430000FFE00210820FFF70BFE94E04E48844287
:1014400008D101211020FFF703FE00211020FFF733
:10145000FFFD88E04948844208D101212020FFF7A0
:10146000F7FD00212020FFF7F3FD7CE04448844293
:1014700008D101214014FFF70BFE00216014FFF793
:1014800007FE70E03F48844209D10121C804FFF7FC
:10149000FFFD00214FF40020FFF7FAFD63E03A481A
:1014A000844209D101210805FFF7F2FD00214FF424
:1014B0008010FFF7EDFD56E03448844209D1012148
:1014C0004805FFF7E5FD00214FF40010FFF7E0FDB0
:1014D00049E02F48844208D101214020FFF7B8FDA0
:1014E00000214020FFF7B4FD3DE02A48844208D1A6
:1014F00001218020FFF7ACFD00218020FFF7A8FD2F
:1015000031E02548844208D101218015FFF7A0FD74
:101510000021A015FFF79CFD25E02048844209D159
:1015200001210804FFF7B4FD00214FF48030FFF7DC
:10153000AFFD18E01A48844209D101214804FFF7A1
:10154000A7FD00214FF40030FFF7A2FD0BE0154886
:10155000844208D101218804FFF79AFD00214FF44D
:101560008020FFF795FD10BD002C014000040040D5
:1015700000080040000C0040001000400014004033
:1015800000340140004C0140005001400054014033
:1015900000180040001C00400020004000400140B6
:1015A000004401400048014030B5024600200023BD
:1015B0000024158A05EA0103958905EA010413B19F
:1015C0000CB1012000E0002030BD1AB183890B432B
:1015D000838102E083898B438381704700220288E4
:1015E0001D4B98420ED01D4B98420BD0B0F1804F4E
:1015F00008D01B4B984205D01A4B984202D01A4B88
:10160000984204D14FF68F731A404B881A43174BF8
:10161000984207D0164B984204D04FF6FF431A4029
:10162000CB881A4302808B8883850B8803850A4BFD
:1016300098420BD0094B984208D00E4B984205D0E7
:101640000D4B984202D00D4B984201D10B7A038684
:101650000123838270470000002C014000340140C8
:101660000004004000080040000C00400010004052
:101670000014004000400140004401400048014087
:101680001FB501210846FFF7D3FC4FF08040FFF75C
:1016900097FE40F2E730ADF808004720ADF80400AF
:1016A0000020ADF80A00ADF8060001A94FF0804017
:1016B000FFF794FF01218807FFF76FFE0122114613
:1016C0009007FFF782FF1C208DF8000000208DF8A6
:1016D000010001208DF802008DF803006846FFF735
:1016E00019FB01218807FFF75EFE1FBD10B586B00C
:1016F0000020019002908DF80C008DF80E008DF8FE
:101700001700002405E000210DF10F000155601CB9
:10171000C4B2082CF7DB01AA00210948FEF769FFD3
:101720009DF80C0048B99DF80E00002804DD9DF8D6
:101730000E1001A8FFF7BCFC00BF06B010BD0000F2
:101740000064004000BFFEE710B504466FF00400DF
:10175000FFF7A6FDE11704EB5171C1F3C701074A7A
:1017600011701046007800EB4001C1EBC0104FF63D
:10177000FF7101EAC0000249088010BD040000208A
:101780000600002001460D4A12884A434FF0E0232C
:101790005A6100229A6101221A6100BF4FF0E022D3
:1017A000106900F001021AB100F48032002AF5D06D
:1017B00000224FF0E0231A619A6170470600002072
:1017C0004820FFF7C1FFFFF79EFAFFF739FBFFF74D
:1017D0007DFAFEF751FDFFF753FF4FF47A70FFF7E4
:1017E000D1FFFFF7D9FAFFF79DFB04210248FFF76D
:1017F000B6F900BFFEE70000001001401C18000809
:101800000000002014000000280100083018000823
:10181000140000206C0600004401000800000000D5
:1018200000000000000000000000000000000000B8
:04000005080000ED02
:00000001FF
