:020000040800F2
:1000000048060020010100081D120008C91100085F
:1000100019120008D3070008551A00080000000054
:10002000000000000000000000000000591400085B
:100030007D0F000800000000B11200086D150008D7
:100040001B0100081B0100081B0100081B01000820
:100050001B0100081B0100081B0100081B01000810
:100060001B0100081B0100081B0100081B01000800
:100070001B0100081B0100081B0100081B010008F0
:100080001B0100081B0100081B0100081B010008E0
:10009000FD1900081B0100081B0100081B010008D6
:1000A0001B0100081B0100081B0100081B010008C0
:1000B000D1150008891600081B0100081B01000863
:1000C0001B0100081B0100081B0100081B010008A0
:1000D0001B0100081B0100081B0100081B01000890
:1000E0001B0100081B0100081B010008DFF80CD0F1
:1000F00000F006FA004800472D1B000848060020C3
:100100000648804706480047FEE7FEE7FEE7FEE7B1
:10011000FEE7FEE7FEE7FEE7FEE7FEE771150008F3
:10012000ED00000880EA010210B502F00043400033
:1001300022D04A001FD0010E01EB1261C0F356001D
:10014000C2F3560240F4000042F40002A0FB022079
:1001500000047F39140400D0401C50EA124001D43E
:100160004000491EC2B20C0604EBD010401C4008EF
:10017000802A02D003E0002010BD20F001000029F9
:1001800000DA0020184310BD30B480EA010202F00A
:10019000004530F0004221F0004013D090B1C30D73
:1001A000D40DC2F31601C0F31600E41A41F40001A5
:1001B00040F400027D34914201D3641C00E0490008
:1001C000002C02DA30BC002070474FF400000023FE
:1001D000914201D3891A034340084FEA4101F7D104
:1001E00051B1914202D14FF0004105E002D24FF0EF
:1001F000010101E06FF0010103EBC450284430BC61
:1002000000F0EAB82DE9FE4F81EA030404F000444F
:1002100021F0004100944FF0000B23F0004350EA1E
:1002200001045ED052EA03045BD0C3F30A54C1F365
:100230000A552C44A4F2F3340194A0FB0254C1F3F8
:10024000130141F48011C3F3130343F4801301FB42
:10025000024400FB034E840A970A44EA815447EAA9
:100260008357A4FB076802958D0A05FB07854FEAB3
:10027000932C04FB0C542705029D4FEA065847EACD
:100280001637B5EB08056EEB070C870E920E47EAA2
:10029000811742EA8312A7FB0201B6EB0B0164EB64
:1002A00000042B0D43EA0C335E1844EB1C50DA4675
:1002B0005146E7FB0201C5F313044FEA0B3343EA4F
:1002C00014534FEA0432019C43EA0603A4F10C04E0
:1002D0000294009CCDE900B400F0C4F803B0BDE87E
:1002E000F08F00200146F9E7C10F80EAE070084472
:1002F000CA079623002100F078B820F00040C10D15
:10030000C0F3160040F400007F2901DA0020704796
:10031000962903DCC1F19601C840704796398840A0
:10032000704770B5C1F30A5201F000450024C1F3D3
:10033000130140F2FF3341F480119A4201DA0020A8
:1003400070BD40F233439A42A2F2334203DC524280
:1003500000F032F800E090402C43F1D0404270BDF4
:10036000C1F30A5210B5C1F3130140F2FF3341F457
:1003700080119A4201DA002010BD40F233439A42C4
:10038000A2F2334203DC524200F016F810BD904056
:1003900010BD00F0004230F000400AD0C10D01F560
:1003A0006071C0F3160042EA0151C20840071143D0
:1003B0007047002001467047202A04DB203A21FACA
:1003C00002F00021704721FA02F3D040C2F120026E
:1003D00091400843194670470029A8BF7047401C48
:1003E000490008BF20F00100704710B4B0FA80FC4B
:1003F00000FA0CF050EA010404BF10BC704749B188
:10040000CCF1200421FA04F411FA0CF118BF0121F7
:1004100021430843A3EB0C01CB1D4FEA00614FEAD7
:10042000102042BF002010BC704700EBC3501044A6
:100430000029A4BF10BC7047401C490008BF20F031
:10044000010010BC704710B5141E73F1000408DAE7
:10045000401C41F1000192185B411A4301D120F088
:10046000010010BD2DE9F04D92469B4611B1B1FA45
:1004700081F202E0B0FA80F22032904600F052F8A9
:1004800004460F4640EA0A0041EA0B0153465A4629
:10049000084313D0114653EA010019D0C8F14002B5
:1004A0005046FFF789FF05460E46504659464246DC
:1004B00000F038F8084305D0012004E02046394612
:1004C000BDE8F08D0020054346EAE0762C43374333
:1004D0000A986305E40AA0EB08000022FD0A44EA3A
:1004E00047540A3002D500200146E9E701051019FA
:1004F0006941DDE9084500196941BDE8F04DA2E711
:10050000064C074D06E0E06840F0010394E8070060
:1005100098471034AC42F6D3FFF7ECFDD81B000827
:10052000F81B0008202A04DB203A00FA02F1002020
:1005300070479140C2F1200320FA03F31943904021
:100540007047000000B585B00121480200F0DEFED2
:100550004FF4004000F0AEFE00F06AF8164800F0DC
:1005600039F8002000908DF804008DF805004FF454
:10057000602002900020039001208DF81000694651
:100580000D4800F08DF801210B4800F017F80A48DB
:1005900000F00AF900BF084800F077F80028FAD107
:1005A000054800F011F900BF034800F057F8002893
:1005B000FAD105B000BD00000024014021B18268DD
:1005C00042F00102826003E0826822F00102826050
:1005D0007047000010B504461248844208D101213A
:1005E000401500F0A3FE0021601500F09FFE17E00B
:1005F0000D48844208D10121001500F097FE00212A
:10060000201500F093FE0BE00848844208D1012138
:10061000C80300F08BFE00214FF4004000F086FE7E
:1006200010BD00000024014000280140003C0140B2
:1006300008B50121042000F069FE8220ADF8000019
:1006400003208DF8020000208DF80300694602485F
:1006500000F095FC08BD00000008014001460020A4
:100660008A6802F004020AB1012000E0002070470D
:100670000146C86C80B270470246002013680B40E8
:100680000BB1012000E000207047014600208A687D
:1006900002F008020AB1012000E0002070470000CB
:1006A00030B502460020002350680F4C20400D79E1
:1006B0000C6844EA05242043506090680B4C2040AD
:1006C000D1E902542C434D7944EA4504204390601B
:1006D000D06A20F470000C7C641EE4B2234340EA2C
:1006E0000350D06230BD0000FFFEF0FFFDF7F1FFC8
:1006F000F0B504460D4600200021092D11DDE0680B
:10070000A5F10A0606EB4607072606FA07F1884315
:10071000A5F10A0606EB460603FA06F10843E06077
:100720000CE0206905EB4507072606FA07F1884328
:1007300005EB450603FA06F108432061072A0FDAA4
:10074000606B561E06EB86071F2606FA07F18843E4
:10075000561E06EB860605FA06F10843606322E0A2
:100760000D2A0FDA206BD61F06EB86071F2606FA26
:1007700007F18843D61F06EB860605FA06F1084303
:10078000206310E0E06AA2F10D0606EB86071F2643
:1007900006FA07F18843A2F10D0606EB860605FA74
:1007A00006F10843E062F0BD816841F00801816014
:1007B000704721B1826842F4A002826003E082683F
:1007C00022F4A00282607047816841F004018160D8
:1007D000704700BFFEE700001FB51E4800F03CF860
:1007E00001A800F02EFA00F0FFF80121480600F001
:1007F0006DFD00208DF80A008DF80B008DF80C00BF
:100800008DF80D008DF80E008DF80F008DF80600A4
:100810008DF8070005208DF8080000208DF80900EC
:100820000920ADF8040001A90A4800F008F91420D5
:100830008DF8000000208DF8010005208DF80200E1
:1008400001208DF80300684600F0F0FC00F0A4F8E9
:100850001FBD00000064004010B504460B488442F0
:1008600009D10121480600F041FD00214FF0007040
:1008700000F03CFD08E00121880600F037FD002172
:100880004FF0806000F032FD10BD000000640040B9
:1008900010B50021837A012202FA03F13D4A126861
:1008A00042F001023B4B1A603A4A1C3212688A43FA
:1008B000384B1C331A60027BCAB9364A0C321268B4
:1008C0008A43344B0C331A604288C38842EA03439C
:1008D000304A4032847A42F834300288838842EACF
:1008E00003432C4A4032847A02EBC4025360027BF9
:1008F000012A19D1274A0C3212680A43254B0C33BE
:100900001A604288038842EA0343224A4032847ACA
:1009100042F83430C288838842EA03431D4A403299
:10092000847A02EBC4025360C27A3AB9194A121DA2
:1009300012688A43174B1B1D1A6006E0154A121DE8
:1009400012680A43134B1B1D1A60028932B9114AFF
:10095000143212688A430F4B14331A600289012A39
:1009600006D10C4A143212680A430A4B14331A6037
:10097000427B012A06D1074A1C3212680A43054B02
:100980001C331A60034A126822F00102014B1A60FC
:1009900010BD0000006600401FB500208DF80A0061
:1009A0008DF80B0001208DF80C006020ADF80000E0
:1009B0000020ADF802004EF6FF70ADF804004FF6CF
:1009C000FF70ADF806000020ADF8080001208DF89A
:1009D0000D006846FFF75CFF01220221014800F08C
:1009E00025F81FBD0064004008B50121042000F077
:1009F0008DFC4FF48050ADF8000003208DF802000C
:100A000018208DF803006946074800F0B8FA4FF443
:100A10000060ADF8000048208DF8030069460248E8
:100A200000F0ADFA08BD0000000801401AB14369AA
:100A30000B43436102E043698B434361704730B528
:100A4000024600200023146824F002041460146895
:100A500044F00104146000E05B1C546804F00104DD
:100A60001CB94FF6FF74A342F6D1546804F0010498
:100A70000CB900206CE08C79012C04D1146844F08E
:100A80008004146003E0146824F080041460CC79BE
:100A9000012C04D1146844F04004146003E014688D
:100AA00024F0400414600C7A012C04D1146844F042
:100AB0002004146003E0146824F0200414604C7ACD
:100AC000012C04D1146844F01004146003E014688D
:100AD00024F0100414608C7A012C04D1146844F0C2
:100AE0000804146003E0146824F008041460CC7A4D
:100AF000012C04D1146844F00404146003E0146869
:100B000024F0040414608C78A407CD7844EA0564CA
:100B10000D7944EA05444D7944EA05540D886D1E6B
:100B20002C43D461146824F001041460002300E015
:100B30005B1C546804F001041CB14FF6FF74A3421F
:100B4000F6D1546804F001040CB1002000E001204B
:100B500030BD10B500F5D87303EB01131B6803F02B
:100B600004031372137A53B900F5D87303EB01131E
:100B70001B6840F2FF7404EA5353136009E000F568
:100B8000D87303EB01131B686FF0604404EAD303CE
:100B9000536000F5D87303EB01131B6803F00203E5
:100BA000537200F5D87303EB01135B6803F00F0376
:100BB000937200F5D87303EB01135B681B0AD374BF
:100BC00000F5D87303EB01139B68D37200F5D8735B
:100BD00003EB01139B681C0A147300F5D87303EB35
:100BE00001139B681C0C547300F5D87303EB0113BD
:100BF0009B681B0E937300F5D87303EB0113DB683E
:100C0000D37300F5D87303EB0113DB681C0A14746B
:100C100000F5D87303EB0113DB681C0C547400F56A
:100C2000D87303EB0113DB681B0E937421B9C368FF
:100C300043F02003C36003E0036943F02003036132
:100C400010BD00218171C171017241728172C17246
:100C50008170C17003210171022141710121018064
:100C60007047000000210022012006E0104B33F8FD
:100C700020300B4499B2431CD8B21428F6DB132061
:100C800091FBF0F059380B4B1870012006E00A4B2D
:100C900033F8203013449AB2431CD8B21428F6DB40
:100CA000132092FBF0F0401C044B187070470000BA
:100CB000A40100200D000020F40100200E000020FF
:100CC00010B500241548006820F0704013490860F2
:100CD0000846006840F00040086004E0601CC4B2B0
:100CE000012000F005FF0E48006808B1C82CF5DBB4
:100CF000C82C01DB012010BD002404E0601CC4B23C
:100D0000012000F0F5FE0648006808B9F02CF5DB7C
:100D1000F02C01DB0120EEE70020ECE700100140A1
:100D20001C0122422DE9F84F4FF0000BDA46002457
:100D3000A14600F0ABF8FFF7C3FFCC2000F0D4F8D9
:100D4000BE2000F0D1F800F08FF8824600F08CF859
:100D5000044600F0BDF8072C06DDE043C4B26FEA9C
:100D60000A0000F0FF0A01E04FF0010BA1464FEA34
:100D700009200FFA80F909EB0A000FFA80F94846BA
:100D8000FFF7B2FA0090FFF704FB07460022094B79
:100D9000FFF738FA0546FFF7C4FA0FFA80F9BBF1FE
:100DA000000F02D04846BDE8F88FC9F1000000B23C
:100DB000F9E700000000B03F38B50121102000F035
:100DC000A5FA8020ADF8000010208DF80300032064
:100DD0008DF802006946084800F0D1F880210648E5
:100DE00000F05AF900F052F8FFF76AFF04460CB918
:100DF000FFF798FF204638BD0010014010B5174896
:100E0000006820F07040154908600846006840F00E
:100E100040500860002012490860022000F068FE7F
:100E200001201049C1F89C010C48006820F0704076
:100E30000A4908600846006840F0004008600C203D
:100E400000F056FE06488038006808B1012400E032
:100E50000024322000F04CFE204610BD001001405E
:100E60009C0122420000224270B50026012508E0C4
:100E7000FFF7C4FF0446E00140EA6600C6B2681C02
:100E8000C5B2082DF4DD304670BD000010B50D4828
:100E9000006820F070400B4908600846006840F088
:100EA0004050086000200849086040F2EE2000F041
:100EB0001FFE01200549C1F89C010F2000F018FE1B
:100EC00010BD0000001001409C012242000022429F
:100ED00010B5FFF7DBFFFFF7F3FECC2000F004F8BE
:100EE000442000F001F810BD70B5044618480068B1
:100EF00020F07040164908600846006840F04050F5
:100F00000860012520E004F0010664106EB10020A5
:100F100010490860022000F0EBFD01200E49C1F8E5
:100F20009C013C2000F0E4FD0CE000200949086031
:100F30003C2000F0DDFD01200749C1F89C010220A2
:100F400000F0D6FD681CC5B2082DDCDD70BD0000C8
:100F5000001001409C0122420000224210B50246CE
:100F60000B460020002104E0545C0444E0B24C1C19
:100F7000E1B29942F8DBC0F1FF0010BD70472DE9E6
:100F8000F04102460025002600200023002400270F
:100F900091F803C00CF00F0591F803C00CF0100C91
:100FA000BCF1000F03D091F802C04CEA050591F89E
:100FB00000C0BCF1000F31D0146800202BE04FF0CE
:100FC000010C0CFA00F3B1F800C00CEA03069E42D3
:100FD00020D183004FF00F0C0CFA03F7BC4305FA45
:100FE00003FC4CEA040491F803C0BCF1280F06D1BD
:100FF0004FF0010C0CFA00FCC2F814C00AE091F8A2
:1010000003C0BCF1480F05D14FF0010C0CFA00FCF5
:10101000C2F810C0401C0828D1D31460B1F800C039
:10102000BCF1FF0F34DD546800202EE000F1080C05
:101030004FF0010808FA0CF3B1F800C00CEA0306FF
:101040009E4221D183004FF00F0C0CFA03F7BC43F2
:1010500005FA03FC4CEA040491F803C0BCF1280F24
:1010600005D100F1080C08FA0CF8C2F8148091F8C8
:1010700003C0BCF1480F07D100F1080C4FF0010884
:1010800008FA0CF8C2F81080401C0828CED354602F
:10109000BDE8F08141617047016170472DE9F0477B
:1010A00032210E4800F07DFD0546FFF71DF981460F
:1010B0000B494846FFF736F88246FFF76AF90746BC
:1010C0000022084BFFF79EF80546FFF749F9C0F3E9
:1010D0000F34A01D84B22046BDE8F0871400002024
:1010E0000000044200002D402DE9F0470025322188
:1010F0000D4800F056FD80464046FFF7F5F8814662
:101100004FF08B41FFF740F807460849FFF70AF810
:1011100006460749FFF706F804462046FFF7EDF8B4
:10112000C5B22846BDE8F087DC000020000004427C
:101130000000C04010B50446072301221946164896
:10114000FFF7D6FA01211448FFF733FB00BF022155
:101150001148FFF791FA0028F9D00F48FFF788FAF5
:101160000E4941F824000723012211460A48FFF7DF
:10117000BFFA01210848FFF71CFB00BF0221064807
:10118000FFF77AFA0028F9D00348FFF771FA04490B
:1011900041F8240010BD000000240140140000208C
:1011A000DC00002010B50446FFF79EFF044941F81B
:1011B0002400FFF773FF034941F8240010BD00002D
:1011C000F4010020A401002000BFFEE710B51021AB
:1011D0000348FFF75FFF04210148FFF75BFF10BDE5
:1011E0000008014008B50121042000F08FF8142008
:1011F000ADF8000003208DF8020010208DF80300E8
:1012000069460448FFF7BBFE14210248FFF744FF7C
:1012100008BD00000008014000BFFEE7704710B5A0
:101220004FF4A06000F03AF810BD000070B5002146
:1012300000230F22C47804B3154C246804F4E0643E
:10124000C4F5E064210AC1F10403CA40447804FAF9
:1012500003F184781440214309010E4C0678A1550E
:10126000047804F01F050124AC4005786D11AD0031
:1012700005F1E025C5F8004109E0047804F01F05F8
:101280000124AC40044D0678761145F8264070BD27
:101290000CED00E000E400E080E100E002490143E1
:1012A000024A1160704700000000FA050CED00E0F2
:1012B0007047000001460020034A506820F4404077
:1012C00008435060704700000010024029B1064AF0
:1012D000D2690243044BDA6104E0034AD2698243D3
:1012E000014BDA61704700000010024029B1064A44
:1012F00012690243044B1A6104E0034A12698243F3
:10130000014B1A61704700000010024029B1064AE3
:1013100092690243044B9A6104E0034A9269824352
:10132000014B9A61704700000010024029B1064A43
:10133000D2680243044BDA6004E0034AD268824375
:10134000014BDA60704700000010024008B501212F
:101350001420FFF7DBFF4FF48070ADF8000003208E
:101360008DF8020010208DF8030069461048FFF741
:1013700006FE4FF44070ADF8000003208DF8020027
:1013800010208DF8030069460A48FFF7F8FD4FF476
:1013900080710748FFF780FE4FF480710548FFF722
:1013A0007BFE4FF400710348FFF776FE08BD000096
:1013B00000080140001001402DE9F04107460D46AC
:1013C000052D04D0022018490870BDE8F081174EA1
:1013D000002405E007F10B00005D3055601CC4B22D
:1013E000AC42F7DB04211148FFF7B8FD0F4909793A
:1013F000884203D002200C490870E6E70B48407889
:10140000012804D0022806D0032806D104E00748AA
:1014100000F00EF805E004E003E002200249087045
:1014200000BF00BF00BFD0E702000020080000207E
:101430008178012909D1C178FF2906D101780329D2
:1014400003D10121034A117002E00221014A117007
:101450007047000002000020704710B500F002F84D
:1014600010BD00000CB500200190009033480068CA
:1014700040F480303149086000BF3048006800F413
:10148000003000900198401C0190009818B9019814
:10149000B0F5A06FF1D12948006800F4003010B118
:1014A0000120009001E0002000900098012843D125
:1014B0002348006840F01000214908600846006891
:1014C00020F0030008600846006840F00200086051
:1014D0001A4840681949486008464068486008460C
:1014E000406840F4806048600846406820F47C1002
:1014F00048600846406840F4E810486008460068C4
:1015000040F08070086000BF0C48006800F0007078
:101510000028F9D00948406820F0030007494860D6
:101520000846406840F00200486000BF0348406839
:1015300000F00C000828F9D10CBD0000001002409A
:1015400000200240042808D14FF0E021096941F051
:1015500004014FF0E022116107E04FF0E02109693A
:1015600021F004014FF0E022116170477047000044
:1015700010B51348006840F00100114908600846A2
:101580004068104908400E494860084600680E4906
:1015900008400B4908600846006820F48020086075
:1015A0000846406820F4FE0048604FF41F00886041
:1015B000FFF753FF4FF000600449086010BD0000C2
:1015C000001002400000FFF8FFFFF6FE08ED00E00B
:1015D00010B50121880700F06FF928B101218807B3
:1015E00000F066F800F002F810BD000010B52148C8
:1015F000007802282AD120480078401C1E49087033
:101600000978491EC8B2FFF795FD1B4800783221C2
:1016100090FBF1F201FB1200C0B9002016490870DE
:1016200016480078401C154908700978491EC8B250
:10163000FFF7B8FD11480078142807D100200F49A2
:101640000870FFF70FFB01200A4908700C4800786A
:1016500004280DD10B480078401C0A490870084640
:101660000078C82804DB00200870032004490870B3
:1016700010BD0000030000200F000020100000201B
:10168000020000200000002010B50121054800F0F4
:1016900013F928B10121034800F00AF800F004F81A
:1016A00010BD0000000400407047CA43028270472A
:1016B000CA430282704721B1028842F001020280CF
:1016C00004E002884FF6FE731A4002807047000063
:1016D00010B504466848844208D10121C014FFF7C0
:1016E00025FE0021E014FFF721FEC4E0B4F1804F95
:1016F00008D101210846FFF7F9FD00210120FFF77D
:10170000F5FDB8E05D48844208D101210220FFF7D1
:10171000EDFD00210220FFF7E9FDACE058488442CE
:1017200008D101210420FFF7E1FD00210420FFF78B
:10173000DDFDA0E05348844208D101210820FFF7D5
:10174000D5FD00210820FFF7D1FD94E04E488442EA
:1017500008D101211020FFF7C9FD00211020FFF75B
:10176000C5FD88E04948844208D101212020FFF7C7
:10177000BDFD00212020FFF7B9FD7CE044488442F4
:1017800008D101214014FFF7D1FD00216014FFF7BB
:10179000CDFD70E03F48844209D10121C804FFF724
:1017A000C5FD00214FF40020FFF7C0FD63E03A487B
:1017B000844209D101210805FFF7B8FD00214FF44B
:1017C0008010FFF7B3FD56E03448844209D101216F
:1017D0004805FFF7ABFD00214FF40010FFF7A6FD11
:1017E00049E02F48844208D101214020FFF77EFDC7
:1017F00000214020FFF77AFD3DE02A48844208D1CD
:1018000001218020FFF772FD00218020FFF76EFD8F
:1018100031E02548844208D101218015FFF766FD9B
:101820000021A015FFF762FD25E02048844209D180
:1018300001210804FFF77AFD00214FF48030FFF703
:1018400075FD18E01A48844209D101214804FFF7C8
:101850006DFD00214FF40030FFF768FD0BE01548E7
:10186000844208D101218804FFF760FD00214FF474
:101870008020FFF75BFD10BD002C014000040040FC
:1018800000080040000C0040001000400014004020
:1018900000340140004C0140005001400054014020
:1018A00000180040001C00400020004000400140A3
:1018B000004401400048014030B5024600200023AA
:1018C0000024158A05EA0103958905EA010413B18C
:1018D0000CB1012000E0002030BD1AB183890B4318
:1018E000838102E083898B438381704700220288D1
:1018F0001D4B98420ED01D4B98420BD0B0F1804F3B
:1019000008D01B4B984205D01A4B984202D01A4B74
:10191000984204D14FF68F731A404B881A43174BE5
:10192000984207D0164B984204D04FF6FF431A4016
:10193000CB881A4302808B8883850B8803850A4BEA
:1019400098420BD0094B984208D00E4B984205D0D4
:101950000D4B984202D00D4B984201D10B7A038671
:101960000123838270470000002C014000340140B5
:101970000004004000080040000C0040001000403F
:101980000014004000400140004401400048014074
:101990001FB501210846FFF799FC4FF08040FFF783
:1019A00097FE40F2E730ADF808004720ADF804009C
:1019B0000020ADF80A00ADF8060001A94FF0804004
:1019C000FFF794FF01218807FFF76FFE0122114600
:1019D0009007FFF782FF1C208DF8000000208DF893
:1019E000010001208DF802008DF803006846FFF722
:1019F0001DFC01218807FFF75EFE1FBD10B586B0F4
:101A00000020019002908DF80C008DF80E008DF8EA
:101A10001700002405E000210DF10F000155601CA6
:101A2000C4B2082CF7DB01AA00210948FFF791F89E
:101A30009DF80C0048B99DF80E00002804DD9DF8C3
:101A40000E1001A8FFF7B8FC00BF06B010BD0000E3
:101A50000064004000BFFEE702E008C8121F08C192
:101A6000002AFAD170477047002001E001C1121F1F
:101A7000002AFBD17047000010B504466FF0040047
:101A8000FFF760FDE11704EB5171C1F3C701074A8D
:101A900011701046007800EB4001C1EBC0104FF60A
:101AA000FF7101EAC0000249088010BD0400002057
:101AB0000600002001460D4A12884A434FF0E023F9
:101AC0005A6100229A6101221A6100BF4FF0E022A0
:101AD000106900F001021AB100F48032002AF5D03A
:101AE00000224FF0E0231A619A617047060000203F
:101AF00001460D4A12784A434FF0E0235A61002212
:101B00009A6101221A6100BF4FF0E022106900F0D3
:101B100001021AB100F48032002AF5D000224FF001
:101B2000E0231A619A61704704000020FFF720FD4E
:101B3000FFF775FB4820FFF79FFFFFF753FBFFF709
:101B400005FCFEF7FFFCFFF737F9FEF745FEFFF750
:101B50001FFF4FF47A70FFF7ADFFFFF737FB00BFB1
:101B6000FEE730B503460BB9002030BD00219A0FC7
:101B70009B00012A01D9491C521A0F240DE049008B
:101B8000920002EB93720D46012000EB45059B008D
:101B9000AA4201D3521B491C641E002CEFD10846F7
:101BA000E3E72DE9F04105460E464FF00008002717
:101BB000002406E055F8240055F8241000FB0177B6
:101BC000641CB442F6DB97FBF6F84046FFF7C9FF0A
:101BD00080464046BDE8F081F81B00080000002068
:101BE00014000000581A00080C1C00081400002003
:101BF00034060000681A0008000000000000000021
:0C1C0000000000000000000000000000D8
:04000005080000ED02
:00000001FF
