:020000040000FA
:1000000070030010E1000000E5000000E7000000C0
:10001000E9000000EB000000ED000000000000001F
:10002000000000000000000000000000EF000000E1
:10003000F100000000000000F3000000F5000000E7
:10004000F7000000F7000000F7000000F7000000D4
:10005000F7000000F7000000F7000000F7000000C4
:10006000F7000000F7000000F7000000F7000000B4
:10007000F7000000F7000000F7000000F7000000A4
:10008000F7000000F7000000F7000000F700000094
:10009000F7000000F7000000F7000000F700000084
:1000A000F700000075010000F7000000F7000000F5
:1000B000F7000000F7000000F7000000F700000064
:1000C000F7000000F7000000F7000000DFF80CD098
:1000D00000F026F800480047F90700007003001000
:1000E00005480047FEE7FEE7FEE7FEE7FEE7FEE71E
:1000F000FEE7FEE7FEE7FEE7CD000000D2B201E03A
:1001000000F8012B491EFBD270470022F6E710B51C
:1001100013460A4604461946FFF7F0FF204610BD75
:10012000064C074D06E0E06840F0010394E8070044
:1001300098471034AC42F6D3FFF7CCFF68080000B4
:100140008808000010B5012000F012F9012000F02D
:1001500057F9BDE81040012000F05EB910B502204B
:1001600000F006F9022000F04BF9BDE81040022033
:1001700000F052B92DE9F843204EF0680090009845
:100180001F4DC0074FF004074FF0010405D01D4973
:10019000012000F0D1F877602C600098184E80079D
:1001A000A6F1080600D53460DFF85C80D8F80C00B2
:1001B00000900098C0071BD012490220103100F0B7
:1001C000BBF8C8F8047000200E4A104FDFF84090CA
:1001D00092F81C8009E0111891F814C039784B1C72
:1001E0003B7009F801C0401CC0B28045F3D86C6078
:1001F0000098800700D57460BDE8F8830040044093
:10020000180000105001001000800440020000108F
:100210003000001010B504460A4850F82410002998
:100220000ED0002140F82410074800EB0410017B99
:10023000001D00F08DF92046BDE8104000F006B822
:1002400010BD0000180000105001001010B5064C41
:100250006178012906D10523E21C217800F094F988
:100260000020607010BD00000000001070B54178E3
:1002700000251D4C012914D0022911D003290FD1CA
:100280008178FF290CD1C078FF2809D1A2781749BD
:10029000174800F079FAA1781448FFF736FFA570E7
:1002A00070BD0178012008291CD2DFE801F01B0491
:1002B0001B070B0F13172070607070BD0321217096
:1002C000607070BD04212170607070BD05212170C7
:1002D000607070BD06212170607070BD07212170B3
:1002E000607070BD257070BD0000001030000010FF
:1002F000008009407047000000000000FFFFFFFF82
:1003000001280ED008480A22084BB3FBF2F2B2FBD8
:10031000F1F1491EC1F30901054A926A0A4342619B
:1003200070470448EFE700000080044040787D01FA
:100330002408000000400440012812D00A48026A44
:10034000D30F4B73C2F380738B73C2F303420A73F0
:10035000426A0A60002B03D1826A4A60C06A8860E0
:1003600070470248EBE70000008004400040044072
:1003700070B505461C4A1D49012D13D01C4C13D1E4
:1003800052F8C40F40F400501060086840F00100BB
:100390000860086840F0040008604FF0190000F0A1
:1003A00098F812E0134CEAE752F8C40F40F480408A
:1003B0001060086840F400700860086840F400604D
:1003C00008604FF0190000F084F80B490220086023
:1003D0000120206000202061A06008492846FFF726
:1003E0008FFF0320206170BD00C00F4000C002409D
:1003F000008004400040044000C0034020A10700EA
:10040000012803D002480021016070470148FAE743
:100410000080044000400440012809D00549CA6911
:100420005207FCD50121044A401E42F820107047B3
:100430000249F4E70080044010000010004004402E
:1004400001281ED010480A7B4FF4702303EA0243B0
:100450004A7B012A00D0002243EAC2738A7B012A28
:1004600000D0002243EA8272C3695B0708D50263A9
:100470000A6842634A6882638968C16321214160D6
:1004800070470248DFE7000000800440004004405D
:1004900010B50023002204E0845C2344DBB2521C2C
:1004A000D2B28A42F8D3C3F1FF0010BD0248016CFA
:1004B00041F0FF010164704700C0092000F01F02F5
:1004C000012191404009800000F1E020C0F8801235
:1004D000704700F01F02012191404009800000F1A7
:1004E000E020C0F80011704700F01F020121914088
:1004F0004009800000F1E020C0F80011704730B5DD
:1005000000F00703C3F10704052C00D90524581D8A
:10051000072801D2002300E09B1E012505FA04F004
:10052000401E084098409D406D1E1540284330BD38
:10053000C906090E002806DA00F00F0000F1E020DD
:1005400080F8141D704700F1E02080F80014704717
:1005500010B5052915D10B4B002203E0845C9C5497
:10056000521CD2B28A42F9D304210648FFF790FF09
:1005700004490979884204D1BDE810400148FFF7D9
:1005800075BE10BD030000102DE9F0410546154869
:1005900000EB051421600021002660180671491C3B
:1005A000C9B20829F9D323736673A673002105E045
:1005B000671812F8010B3871491CC9B29942F7D378
:1005C0002846FFF729FF084850F82510002907D0D2
:1005D00040F825602146681CBDE8F041FFF730BFB8
:1005E000BDE8F081300100101000001070B52A48FD
:1005F0002021C0F8A011D0F8A011890603D5D0F8A9
:10060000A0114906FBD503258030C0F88450002492
:10061000C0F82841C0F82C410126C0F88C601F4961
:100620004160AA23C3605522C2600660C360C260F5
:100630008038D0F888104901FBD540F8805FC3604E
:10064000C2608038D0F88810C1F301610329F9D164
:100650002321A0304160C360C2600660C360C260F5
:10066000A038D0F8A8104905FBD540F8A05FC360BA
:10067000C260A038D0F8A810C1F301210329F9D134
:100680000749C0F8C410C0F8C841016821F470419E
:1006900041F48041016070BD00C00F40630005005F
:1006A000DE87280470B504460D46324A3249334885
:1006B000944224D151F8C42F42F008020A60016824
:1006C00021F030010160016841F010010160016812
:1006D00021F0C0010160016841F040010160052086
:1006E000FFF7ECFE012200210420FFF708FF01467E
:1006F0000520FFF71DFF0520FFF7F6FE26E0204A44
:10070000944223D151F8C42F42F080720A600168EC
:1007100021F440110160016841F480110160016819
:1007200021F440010160016841F48001016007206B
:10073000FFF7C4FE022200210420FFF7E0FE01467D
:100740000720FFF7F5FE0720FFF7CEFE832020737A
:100750000C4800688009B0FBF5F0010A2171207097
:100760000320207307202072012060600520606054
:1007700070BD000000C0004000C00F4000C002403B
:10078000008009402C00001010B5002307E0047D14
:10079000A406FCD511F8014B04705B1CDBB293423C
:1007A000F5D310BD02E008C8121F08C1002AFAD113
:1007B0007047002001E001C1121F002AFBD17047E1
:1007C0004FF0E020016921F003010161016941F06E
:1007D00004010161054806490068B0FBF1F00549D4
:1007E00088604FF47A725043486070472C000010C4
:1007F00040420F0020000010FFF7F8FEFFF756FE02
:10080000FFF7DEFF4FF4E1310548FFF74BFFFFF73D
:1008100099FCFFF7A3FC0120FFF7FCFCFBE70000BD
:1008200000800940000000000000000000000000FF
:100830000000000000C001000000000000C0120025
:100840000000000000C023000000000000C02500E0
:100850000000000000C036000000000000000000A2
:1008600000C0480000C049008808000000000010D7
:1008700030000000A4070000B8080000300000109D
:1008800040030000B207000000000000000000006C
:100890000000000000000000000000000000000058
:1008A0000000000000000000000000000000000048
:0808B0000000000000E1F50565
:04000005000000CD2A
:00000001FF
