:020000040000FA
:1000000090020010E5000000E9000000EB00000095
:10001000ED000000EF000000F10000000000000013
:10002000000000000000000000000000F3000000DD
:10003000F500000000000000F7000000F9000000DB
:10004000FB000000FB000000FB000000FB000000C4
:10005000FB000000FB000000FB000000FB000000B4
:10006000FB000000FB000000FB000000FB000000A4
:10007000FB000000FB000000FB000000FB00000094
:10008000FB000000FB000000FB000000FB00000084
:10009000FB000000FB000000FB000000FB00000074
:1000A000FB000000B1010000FB000000FB000000AD
:1000B000FB000000FB000000FB000000FB00000054
:1000C000FB000000FB000000FB000000DFF80CD08C
:1000D00000F016F8004800470914000090020010D4
:1000E00000BF704705480047FEE7FEE7FEE7FEE772
:1000F000FEE7FEE7FEE7FEE7FEE7FEE7CD000000D5
:10010000064C074D06E0E06840F0010394E8070064
:1001100098471034AC42F6D3FFF7DCFF642C0000A4
:10012000842C000000BF0548406800F00040002813
:10013000F9D002484168C1F30B10704700400340FA
:100140000B48C06820F040400949C8600846C068B4
:1001500040F04040C8600748006840F480500549BE
:10016000C439C1F8C400044804490860704700005D
:1001700000C00240C4C00F402004200000400340E3
:100180000548006820F0E060034908600846006800
:1001900040F08070086070470040034003480068EA
:1001A00020F0E06001490860704700000040034013
:1001B00008B51948C0680090009800F0010048B1E7
:1001C0001649012000F054F804201349486001202A
:1001D00013490860009800F0020010B10120114995
:1001E00008601148C0680090009800F0010050B10C
:1001F0000A491031022000F03BF804200A49486007
:10020000012007494860009800F0020010B1012069
:100210000449486008BD0000004004406C00001024
:10022000340000102C0000100080044030B502465D
:100230000B46012A01D10A4D00E00A4D2C46002050
:100240000A21094DB5FBF1F5B5FBF3F5681EC0F3C6
:100250000900064D55F821502843606130BD00006B
:10026000004004400080044040787D0100170000F9
:1002700030B50346012B01D10A4C00E00A4C204660
:10028000026AD40F4C73C2F380748C73C2F30344BC
:100290000C73446A0C608C7B1CB9846A4C60C56A20
:1002A0008D6030BD0040044000800440012801D131
:1002B000034A00E0034A114600220A60704700002A
:1002C000004004400080044010B5012801D1084AD4
:1002D00000E0084A114600BFCA6902F00402002A81
:1002E000FAD00123421E044C44F8223010BD000015
:1002F00000400440008004402C000010FFFFFFFF7E
:1003000070B50546012D01D1204800E02048044683
:10031000012D16D11F48006840F400501D49C43912
:10032000C1F8C4001C48006840F001001A49086088
:100330000846006840F004000860192000F05CFFE7
:1003400015E01448006840F480401249C439C1F8EF
:10035000C4001148006840F400700F490860084666
:10036000006840F400600860192000F045FF02209A
:100370000A4908600120206000202061A06008492F
:100380002846FFF753FF0320206170BD0040044062
:1003900000800440C4C00F4000C0024000C00340C1
:1003A00020A107002DE9F04306461746DFF8FCC2FE
:1003B000DCF80080DFF8F8C2DCF800C00CF1010CBA
:1003C00008EB6C0CBCF5007F01DBBDE8F0834FF05F
:1003D000010CDFF8E082C8F800C0002F77D1A6F149
:1003E000010C41EA4C314FF2FF7C01EA0C01DFF8CD
:1003F000C0C29CF800C00CF0010CBCF1000F22D16F
:10040000DFF8A8C2DCF800C0BCF1000F1BD0DFF899
:10041000A0C2DCF800C04FEA6C00DFF890C2DCF844
:100420000050DFF8948258F8202007E0401CDFF8E5
:10043000888258F8203048F820201A46B5F1000C80
:10044000A5F10105F2D1DFF868C2DCF800C0BCF10B
:10045000000F08D14FF6FF7C4CEA014CDFF85882C0
:10046000C8F800C0B2E0DFF848C2DCF800C0BCF158
:10047000010F20D1DFF840C2DCF800C0B1EB1C4F07
:100480000CD2DFF834C2DCF800C04FEA1C4C4CEA56
:10049000014CDFF82482C8F800C097E0DFF818C2EA
:1004A000DCF800C06FF30F0C4CEA010CDFF8088297
:1004B000C8F800C08AE00020DFF8F4C1DCF8004092
:1004C000DCF800C0ACF1010C4FEA6C0517E088E0E5
:1004D000DFF8E48158F820C0B1EB1C4F01D2440092
:1004E0000FE0DFF8D48158F820C01FFA8CFC8C454F
:1004F00004D94FF0010C0CEB400402E0401CA84270
:10050000E6DD00BFA8421DDDDFF8A4C19CF800C0F5
:100510000CF0010CBCF1000F08D14FF6FF7C4CEA47
:10052000014CDFF8949149F820C04FE0DFF8888152
:1005300058F820C06FF30F0C4CEA010CC14649F883
:1005400020C043E0DFF8708158F8202004F0010C4F
:10055000BCF1000F04D14FEA014C4CEA124305E014
:100560004FEA124C4FEA0C4C4CEA0103DFF8488189
:1005700048F82030DFF838C1DCF800C04FEA6C05DD
:100580000CE0401CDFF8308158F820304FEA134C63
:100590004CEA024CC14649F820C01A46A842F0DB9A
:1005A000DFF80CC19CF800C00CF0010CBCF1000F8E
:1005B0000CD1DFF8048158F820C06FF30F0C4FF610
:1005C000FF78C444DFF8F09049F820C0DFF8E0C0BD
:1005D000DCF800C00CF1010CDFF8D480C8F800C0D2
:1005E0003EE0A6F1010C41EA4C71DFF8C4C0DCF832
:1005F00000C00CF1010C4FEA6C00002408E0DFF8A9
:10060000B88058F820C08C4500D907E0401C641C15
:10061000DFF898C0DCF800C06445F0DB00BFDFF80D
:10062000988058F8202048F82010DFF880C0DCF8C7
:1006300000C00CF1010CDFF87480C8F800C0C4469B
:10064000DCF800C0ACF1010508E0401C641CDFF8D8
:10065000688058F8203048F820201A46AC42F4DB75
:10066000DFF84CC0DCF800C00CF1010C4FEA6C0C58
:100670004FEA8C02DFF834C0DCF800C002EB8C03D8
:100680004FF0000CDFF82C80C8F804C0C446CCF84A
:100690000820CCF80C20CCF81030CCF814304FF0F7
:1006A000000CC8F800C000BF8FE60000400000103A
:1006B0003C00001000C003400080034030B50246FB
:1006C000012A01D1124C00E0124C20460C7B4FF461
:1006D000702505EA04444D7B012D00D100E0002582
:1006E0006D4244EAC5758C7B012C00D100E00024EA
:1006F00045EA8473C46904F0040444B103630C68DC
:1007000044634C6884638C68C4632124446030BDB6
:10071000004004400080044070B5054600F0EAFC4B
:100720001548008848F68911884208D100214E20DA
:1007300000F0D2FF00214F2000F0CEFF07E00021A3
:10074000202000F0C9FF0021212000F0C5FF4FF458
:1007500080000A49C861222000F06CFF00F0ACFF65
:10076000002403E0284600F095FF641CB4F5963F92
:10077000F8D300F0A9FF70BD4800001000C00920A8
:100780002DE9F04105460E461446A4F12000C4B2FE
:1007900004EB4403054F07EB031205EB4503D900B7
:1007A000300100F017F8BDE8F08100006417000088
:1007B00070B506460D46144600F09CFC06E014F8A1
:1007C000012B29466D1C3046FFF7DAFF2078002800
:1007D000F5D170BD2DE9F04704460D4616464FF0A1
:1007E0000009C4F598743548008848F68911884294
:1007F0001ED1A9B2442000F06FFF05F1170045EAB1
:10080000002081B2442000F067FFA1B2452000F033
:1008100063FF04F10F0081B2462000F05DFFA9B232
:100820004E2000F059FFA1B24F2000F055FF1BE011
:10083000A9B2502000F050FF05F1170081B25120FD
:1008400000F04AFFA1B2522000F046FF04F10F0071
:1008500081B2532000F040FFA9B2202000F03CFFFD
:10086000A1B2212000F038FF4FF480001449C86184
:10087000222000F0DFFE00F01FFF4FF0000816E01E
:100880000F270FE036F819100120B840014021B9B8
:100890000C48008800F0FEFE03E00B48008800F0E2
:1008A000F9FE7F1E002FEDDAB61C08F10108B8F141
:1008B000180FE5DB00F008FFBDE8F08748000010E6
:1008C00000C00920460000104400001010B5FE488A
:1008D000006840F07E70FC4908604FF07E708861CF
:1008E000052000F071FD002000F066FEF749088049
:1008F0000846008844F2315188427CD10121002011
:1009000000F0EAFE4FF4C561102000F0E5FE06217C
:10091000122000F0E1FE40F63221132000F0DCFE50
:100920004021112000F0D8FE5021152000F0D4FE07
:100930001621122000F0D0FE0F2000F045FD45F2F8
:100940006061102000F0C8FE0F2000F03DFD42F66F
:100950004E21132000F0C0FE4FF48071012000F002
:10096000BBFE4FF44071022000F0B6FE41F23001B0
:10097000032000F0B1FE40F20221082000F0ACFE9E
:1009800000210A2000F0A8FE0021302000F0A4FE83
:1009900040F20241312000F09FFE4FF4837132207B
:1009A00000F09AFE4FF4E061332000F095FE4FF422
:1009B0008271342000F090FE40F20131352000F0C9
:1009C0008BFE40F20771362000F086FE40F20531C2
:1009D000372000F081FE4FF40271382000F07CFED9
:1009E00040F60B71392000F077FE0F2000F0ECFC90
:1009F0000221412000E028E000F06EFE4FF41C517F
:100A0000602000F069FE0121612000F065FE40F2E7
:100A10001911902000F060FE4FF48571922000F0D3
:100A20005BFE0421932000F057FE4FF48071A0205C
:100A300000F052FE0F2000F0C7FC0021A02000F0C3
:100A40004BFE142000F0C0FC04E2A048008849F2EC
:100A5000253188427DD11021E72000F03DFE0121A3
:100A6000002000F039FE4FF48071012000F034FEC8
:100A70004FF4E061022000F02FFE41F2300103202C
:100A800000F02AFE0021042000F026FE40F207219B
:100A9000082000F021FE0021092000F01DFE0021A9
:100AA0000A2000F019FE01210C2000F015FE0021A3
:100AB0000D2000F011FE00210F2000F00DFE00219E
:100AC000102000F009FE0721112000F005FE002192
:100AD000122000F001FE0021132000F0FDFD0F2088
:100AE00000F072FC41F29051102000F0F5FD40F250
:100AF0002721112000F0F0FD0F2000F065FC9C2163
:100B0000122000F0E9FD0F2000F05EFC4FF4C85108
:100B1000132000F0E1FD2321292000F0DDFD0E214E
:100B20002B2000F0D9FD0F2000F04EFC00212020EA
:100B300000F0D2FD0021212000F0CEFD0F2000F0BA
:100B400043FC0721302000F0C7FD40F2077131203F
:100B500000E085E000F0C0FD0621322000F0BCFD81
:100B600040F20471352000F0B7FD41F604713620E3
:100B700000F0B2FD0421372000F0AEFD0021382046
:100B800000F0AAFD40F20671392000F0A5FD40F208
:100B900001713C2000F0A0FD0F213D2000F09CFDE4
:100BA0000F2000F011FC0021502000F095FDEF21F6
:100BB000512000F091FD0021522000F08DFD40F207
:100BC0003F11532000F088FD4FF42741602000F0D2
:100BD00083FD0121612000F07FFD00216A2000F0EB
:100BE0007BFD0021802000F077FD0021812000F0B6
:100BF00073FD0021822000F06FFD0021832000F0B2
:100C00006BFD0021842000F067FD0021852000F0AD
:100C100063FD1021902000F05FFD0021922000F084
:100C20005BFD0321932000F057FD4FF48871952060
:100C300000F052FD0021972000F04EFD0021982089
:100C400000F04AFD40F23311072000F045FD00217D
:100C5000202000F041FD0021212000F03DFDF9E0C1
:100C60001A48008849F220318842F8D14FF40041F7
:100C7000E52000F031FD0121002000F02DFD4FF4B2
:100C80008071012000F028FD4FF4E061022000F0A7
:100C900023FD41F23001032000F01EFD002104205D
:100CA00000F01AFD40F20221082000F015FD00219D
:100CB000092000F011FD00210A2000F00DFD0021A7
:100CC0000C2000F009FD03E000C0092048000010DE
:100CD00000210D2000F000FD00210F2000F0FCFCA1
:100CE0000021102000F0F8FC0021112000F0F4FC9D
:100CF0000021122000F0F0FC0021132000F0ECFC99
:100D0000142000F061FB41F2B071102000F0E4FC0F
:100D100040F23711112000F0DFFC052000F054FBF9
:100D200040F23911122000F0D7FC052000F04CFBF6
:100D30004FF4E851132000F0CFFC1321292000F0DC
:100D4000CBFC052000F040FB0021202000F0C4FC7B
:100D50000021212000F0C0FC0621302000F0BCFC66
:100D600040F20111312000F0B7FC0321322000F0E5
:100D7000B3FC4FF48371352000F0AEFC40F6023135
:100D8000362000F0A9FC40F20231372000F0A4FC2C
:100D900040F20771382000F09FFC0721392000F055
:100DA0009BFC4FF4C0613C2000F096FC40F20B210C
:100DB0003D2000F091FC0021502000F08DFCEF213F
:100DC000512000F089FC0021522000F085FC40F207
:100DD0003F11532000F080FC4FF41C51602000F0C4
:100DE0007BFC0121612000F077FC00216A2000F0EB
:100DF00073FC0021802000F06FFC0021812000F0B6
:100E00006BFC0021822000F067FC0021832000F0B1
:100E100063FC0021842000F05FFC0021852000F0AD
:100E20005BFC1021902000F057FC0021922000F084
:100E300053FC0321932000F04FFC4FF48871952060
:100E400000F04AFC0021972000F046FC0021982089
:100E500000F042FC41F23801032000F03DFC40F27A
:100E60007311072000F038FC9B48008848F6891170
:100E700088427DD10121002000F02EFC052000F0E9
:100E8000A3FA4AF6A401032000F026FC052000F096
:100E90009BFA00210C2000F01FFC052000F094FAC2
:100EA00040F60C010D2000F017FC052000F08CFA34
:100EB0004FF42C510E2000F00FFC052000F084FAB6
:100EC000B0211E2000F008FC052000F07DFA42F65B
:100ED0003F31012000F000FC052000F075FA4FF4CE
:100EE000C061022000F0F8FB052000F06DFA00213F
:100EF000102000F0F1FB052000F066FA46F27801C0
:100F0000112000F0E9FB052000F05EFA0021052029
:100F100000F0E2FB052000F057FA0021062000F067
:100F2000DBFB052000F050FA4EF61C71162000F095
:100F3000D3FB052000F048FA0321172000F0CCFB7A
:100F4000052000F041FA40F23321072000F0C4FBF5
:100F5000052000F039FA00210B2000F0BDFB052030
:100F600000F032FA00210F2000F0B6FB052000E06F
:100F7000B1E000F029FA0021412000F0ADFB05208E
:100F800000F022FA0021422000F0A6FB052000F02C
:100F90001BFA0021482000F09FFB052000F014FA06
:100FA00040F23F11492000F097FB052000F00CFAB9
:100FB00000214A2000F090FB052000F005FA0021F6
:100FC0004B2000F089FB052000F0FEF94FF46F4143
:100FD000442000F081FB052000F0F6F900214520B7
:100FE00000F07AFB052000F0EFF940F23F114620B7
:100FF00000F072FB052000F0E7F940F207713020A5
:1010000000F06AFB052000F0DFF94FF40171312098
:1010100000F062FB052000F0D7F94FF40171322097
:1010200000F05AFB052000F0CFF940F202513320C6
:1010300000F052FB052000F0C7F940F207513420C0
:1010400000F04AFB052000F0BFF94FF40171352094
:1010500000F042FB052000F0B7F94FF40171362093
:1010600000F03AFB052000F0AFF940F202513720C2
:1010700000F032FB052000F0A7F940F202313A20DF
:1010800000F02AFB052000F09FF940F202313B20DE
:1010900000F022FB052000F097F90021232000F04A
:1010A0001BFB052000F090F90021242000F014FB28
:1010B000052000F089F94FF40041252000F00CFBD9
:1010C000052000F081F900214F2000F005FB0021F0
:1010D0004E2000F001FB10BD4800001001490880BF
:1010E000704700004600001001490880704700006A
:1010F0004400001010B51548008848F68911884250
:1011000012D10021442000F0E7FA4FF46F4144204F
:1011100000F0E2FA0021452000F0DEFA40F23F1133
:10112000462000F0D9FA10E00021502000F0D4FA57
:10113000EF21512000F0D0FA0021522000F0CCFA2B
:1011400040F23F11532000F0C7FA10BD48000010D4
:10115000302201F8012B782201F8012B064A02EB1C
:101160002012127801F8012B00F00F02024B9A5C5A
:1011700001F8012B7047000008000010002008E073
:101180000549496D054A52F820209143024A5165AC
:10119000401C0828F4DB704700C0092044170000F9
:1011A00000B50448006C40F0FF0002490864FFF7F6
:1011B000E5FF00BD00C009200146002015E0012226
:1011C00082400A4042B10A4A526D0A4B53F820301D
:1011D0001A43074B5A6507E0054A526D054B53F811
:1011E00020309A43024B5A65401C0828E7DB7047C1
:1011F00000C009204417000000F01F0201219140A7
:101200004209920002F1E022C2F80011704700008A
:1012100020204B4908604B48D0F8A00100F0200086
:1012200030B100BF4648006800F040000028F9D007
:10123000032043499C39086000204249C1F8A801B5
:101240003F490C31086001203D49943908603E480F
:101250003C4984310860AA203A498C310860552005
:1012600008600120374980310860AA2035498C3157
:10127000086055203349C1F88C0000BF31488830E0
:10128000006800F080600028F8D003202D498031EC
:101290000860AA202B49C1F88C00552029498C31BF
:1012A000086000BF27488830006800F04070B0F147
:1012B000407FF7D123202349A4310860AA20214987
:1012C000C1F8AC0055201F49AC31086001201D4910
:1012D000A0310860AA201B49AC310860552019498B
:1012E000C1F8AC0000BF1748A830006800F4806067
:1012F0000028F8D003201349A0310860AA20114922
:10130000C1F8AC0055200F49AC31086000BF0D4852
:10131000A830006800F44070B0F5407FF7D10B486A
:101320000849C431086000200649C1F8C8010846D0
:10133000006820F4704040F480400860704700006E
:10134000A0C10F4000C00F4063000500DE872804E5
:1013500002E008C8121F08C1002AFAD1704770477E
:10136000002001E001C1121F002AFBD1704710B517
:10137000FEF706FFFEF7D6FEC0F30714FEF70EFFDA
:10138000204610BD10B5FEF7DBFE10BD10B50120E4
:10139000FEF7B6FF0220FEF7B3FF00222121012055
:1013A000FFF700F80120FEF781FF0220FEF77EFF25
:1013B0000120FEF789FF0220FEF786FF10BD00E046
:1013C000401E0028FCD17047800400BF011EA0F120
:1013D0000100FBD17047000001460A48006C40F054
:1013E000FF00084A10644FF4001090618010D06133
:1013F000104641654FF480109061D061081250652D
:101400000120704700C00920FFF702FFFFF7BAFF75
:10141000FFF7C6FEFFF7BAFFFFF758FA4FF6FF7067
:10142000FFF77AF91F20FFF759FE4FF6FF70FFF71D
:101430005BFE29A200210846FFF7BAF92CA2002181
:101440000120FFF7B5F930A200210220FFF7B0F923
:101450004FF6FF70FFF742FE1F20FFF745FE30A258
:1014600000210520FFF7A4F9212033490861002459
:1014700004E000213048001D0155641C082CF8DBF5
:1014800001212D48017700214177817722E0FFF784
:101490006EFF2A4908602A48406858B10020284950
:1014A0004860264801782448017500F110010220A7
:1014B000FFF704F942F21070FFF781FF214800683E
:1014C00030B100201F4908601F4800791F4908609B
:1014D00000F088F8DBE700002020204C616E6454A7
:1014E000696765722044656D6F2020200000000050
:1014F00020202020202043414E2044656D6F202075
:10150000202020200000000020207777772E506FC9
:101510007765724D43552E636F6D202000000000EB
:101520002043414E206174203530306B6269742F46
:1015300073202020000000004C000010000000106C
:101540002C000010340000106C000010040000108B
:1015500010B500244FF400001649886140008861EE
:101560004000C86100BF0846006C20F0FF0008641E
:101570004FF40010C8618010C861502000F054F88A
:101580000C48406DC3B24FF400200A4988615020D6
:1015900000F04AF80748406D63F31F2003464FF4FC
:1015A00000100449886100BF1C4600018861204684
:1015B00010BD000000C0092070B5044600254FF49E
:1015C00080000749C861E0B200F034F8FFF7C0FFBF
:1015D00005464FF4800002498861284670BD00002E
:1015E00000C0092010B50C4908780C49FFF7B0FD80
:1015F0000B49087809490931FFF7AAFD074A121F6C
:1016000000210620FFF7D4F805490878FFF7D4FD3C
:101610000448FFF7D4FE10BD000000101C000010AD
:101620000400001040420F0000BF011EA0F10100A5
:10163000FBD1704710B504464FF400000849C8615B
:10164000800088612046FFF7C7FE4FF08070044994
:10165000C861FEF745FD4FF080700149886110BDFB
:1016600000C0092010B504464FF400000849886105
:10167000800088612046FFF7AFFE4FF0807004497C
:10168000C861FEF72DFD4FF080700149886110BDE3
:1016900000C0092010B504462046FFF79DFE4FF01C
:1016A00080700449C861FEF71BFD4FF0807001494E
:1016B000886110BD00C009204FF400000149886115
:1016C0007047000000C009204FF480000149886184
:1016D0007047000000C0092070B505460C464FF465
:1016E00080000649C8612846FFF7A4FF2046FFF79F
:1016F000B9FF4FF480000149886170BD00C0092026
:1017000000000000000000000000000000000000D9
:1017100000C001000000000000C012000000000036
:1017200000C023000000000000C0250000000000F1
:1017300000C03600000000000000000000C04800AB
:1017400000C0490001000000020000000400000089
:101750000800000010000000200000004000000011
:1017600080000000000000000000000000000000F9
:101770000000000000000000000000000000000069
:101780000000000000000000000000000000000059
:1017900000000000000080018001800180018001C4
:1017A0008001800180018001800180018001800131
:1017B0000000000080018001000000000000000027
:1017C0000000000000000000CC00CC00CC00CC00E9
:1017D000CC00CC0000000000000000000000000071
:1017E00000000000000000000000000000000000F9
:1017F00000000000000000000000000000000000E9
:10180000600C600C600C30063006FE1FFE1F3006B8
:1018100038071803FE1FFE1F180318038C018C01E4
:101820008C01000000008000E003F80F9C0E8C1C6F
:101830008C188C009800F801E007800E801C8C1832
:101840008C189C18B80CF00FE0038000800000009A
:10185000000000000000000000000E181B0C110C1E
:1018600011061106110311039B018E01C038C06CD3
:1018700060446044304430441844186C0C38000014
:10188000000000000000E001F00338071806180609
:101890003003F001F000F8009C310E33061E061CE8
:1018A000061C063FFC73F021000000000000000051
:1018B00000000000000000000C000C000C000C00F8
:1018C0000C000C0000000000000000000000000000
:1018D0000000000000000000000000000000000008
:1018E000000000000000000200038001C000C000F2
:1018F0006000600030003000300030003000300008
:101900003000300060006000C000C00080010003B3
:1019100000020000000020006000C0008001800183
:10192000000300030006000600060006000600068D
:10193000000600060003000380018001C000600073
:101940002000000000000000000000000000000077
:10195000C000C000D806F807E001300338070000D7
:101960000000000000000000000000000000000077
:101970000000000000000000000000000000000067
:1019800080018001800180018001FC3FFC3F8001DB
:101990008001800180018001000000000000000043
:1019A0000000000000000000000000000000000037
:1019B0000000000000000000000000000000000027
:1019C0000000000000008001800100010001800093
:1019D0000000000000000000000000000000000007
:1019E000000000000000000000000000E007E00729
:1019F00000000000000000000000000000000000E7
:101A000000000000000000000000000000000000D6
:101A100000000000000000000000000000000000C6
:101A2000000000000000C000C00000000000000036
:101A3000000000000000000C000C0006000600067C
:101A40000003000300038003800180018001C000C7
:101A5000C000C00060006000000000000000000046
:101A6000000000000000E003F007380E180C0C180E
:101A70000C180C180C180C180C180C180C180C1846
:101A8000180C380EF007E003000000000000000012
:101A900000000000000000018001C001F001980179
:101AA0008801800180018001800180018001800126
:101AB0008001800180018001000000000000000022
:101AC000000000000000E003F80F180C0C180C18C0
:101AD00000180018000C000600038001C000600020
:101AE00030001800FC1FFC1F000000000000000078
:101AF000000000000000E001F807180E0C0C0C0CB0
:101B0000000C0006C003C007000C001800180C18D9
:101B10000C18180CF807E00300000000000000009B
:101B2000000000000000000C000E000F000F800DF0
:101B3000C00C600C600C300C180C0C0CFC3FFC3F13
:101B4000000C000C000C000C000000000000000065
:101B5000000000000000F80FF80F180018000C003B
:101B6000EC03FC071C0E001C0018001800180C18D1
:101B70001C0C180EF807E003000000000000000035
:101B8000000000000000C007F00F381C18181800F3
:101B90000C00CC03EC0F3C0E1C1C0C180C180C1881
:101BA000181C380EF007E0030000000000000000E1
:101BB000000000000000FC1FFC1F000C00060006D7
:101BC000000380038001C001C000E00060006000ED
:101BD0007000300030003000000000000000000005
:101BE000000000000000E003F007380E180C180C8D
:101BF000180C3806F007F007180C0C180C180C1805
:101C00000C18380CF80FE003000000000000000082
:101C1000000000000000E003F007380E1C0C0C1858
:101C20000C180C181C1C381EF81BE0190018000CAE
:101C3000000C1C0EF807F00100000000000000007E
:101C40000000000000000000000000000000000094
:101C50008001800100000000000000000000000082
:101C60000000000080018001000000000000000072
:101C70000000000000000000000000000000000064
:101C80008001800100000000000000000000000052
:101C900000000000800180010001000180000000C0
:101CA0000000000000000000000000000000000034
:101CB000000000000010001C800FE003F800180076
:101CC000F800E003800F001C00100000000000007E
:101CD0000000000000000000000000000000000004
:101CE00000000000F81F000000000000F81F0000C6
:101CF00000000000000000000000000000000000E4
:101D000000000000000000000000000000000000D3
:101D10000000000008003800F001C007001F001894
:101D2000001FC007F001380008000000000000009C
:101D3000000000000000E003F80F180C0C180C184D
:101D40000018000C000600038001C000C000C000A5
:101D500000000000C000C000000000000000000003
:101D60000000000000000000E00718180420C2294D
:101D7000224A114409440944094409221113E20C7E
:101D8000024004201818E0070000000000000000D6
:101D900000000000000080038003C006C006C006EB
:101DA000600C600C301830183018F83FF83F1C7089
:101DB0000C600C6006C006C00000000000000000BF
:101DC000000000000000FC03FC0F0C0C0C180C18A9
:101DD0000C180C0CFC07FC0F0C180C300C300C30E1
:101DE0000C300C18FC1FFC07000000000000000075
:101DF000000000000000C007F01F38381C300C70D5
:101E000006600600060006000600060006000660E2
:101E10000C701C30F01FE007000000000000000004
:101E2000000000000000FE03FE0F060E0618061854
:101E3000063006300630063006300630063006180A
:101E40000618060EFE0FFE03000000000000000052
:101E5000000000000000FC3FFC3F0C000C000C00E8
:101E60000C000C00FC1FFC1F0C000C000C000C00F4
:101E70000C000C00FC3FFC3F0000000000000000D4
:101E8000000000000000F83FF83F1800180018009C
:101E900018001800F81FF81F180018001800180084
:101EA00018001800180018000000000000000000D2
:101EB000000000000000E00FF83F3C780E6006E0F4
:101EC00007C00300030003FE03FE03C007C006C0F3
:101ED0000EC03CF0F83FE00F0000000000000000E2
:101EE0000000000000000C300C300C300C300C30C6
:101EF0000C300C30FC3FFC3F0C300C300C300C3004
:101F00000C300C300C300C300000000000000000E1
:101F1000000000000000800180018001800180013C
:101F200080018001800180018001800180018001A9
:101F3000800180018001800100000000000000009D
:101F40000000000000000006000600060006000673
:101F50000006000600060006000600060006180639
:101F600018063807F003E001000000000000000040
:101F700000000000000006300618060C06060603E6
:101F80008601C60066007600DE008E0106030606A6
:101F9000060C061806300660000000000000000075
:101FA00000000000000018001800180018001800B9
:101FB0001800180018001800180018001800180061
:101FC00018001800F81FF81F0000000000000000B3
:101FD0000000000000000EE01EF01EF01EF036D8DB
:101FE00036D836D836D866CC66CC66CCC6C6C6C619
:101FF000C6C6C6C686C386C3000000000000000037
:102000000000000000000C301C303C303C306C30D4
:102010006C30CC30CC308C310C330C330C360C366D
:102020000C3C0C3C0C380C300000000000000000A0
:10203000000000000000E007F81F1C380E7006606A
:1020400003C003C003C003C003C003C003C00660D5
:102050000E701C38F81FE0070000000000000000B0
:10206000000000000000FC0FFC1F0C380C300C308E
:102070000C300C300C18FC1FFC070C000C000C0082
:102080000C000C000C000C00000000000000000020
:10209000000000000000E007F81F1C380E7006600A
:1020A00003E003C003C003C003C003C007E006632E
:1020B0000E3F1C3CF83FE0F700C0000000000000AD
:1020C000000000000000FE0FFE1F0638063006303C
:1020D00006300638FE1FFE0706030606060C061825
:1020E0000618063006300660000000000000000000
:1020F000000000000000E003F80F1C0C0C180C1886
:102100000C001C00F803E00F001E003806300630FB
:102110000E301C1CF80FE00700000000000000005B
:10212000000000000000FE7FFE7F80018001800132
:102130008001800180018001800180018001800197
:10214000800180018001800100000000000000008B
:102150000000000000000C300C300C300C300C3053
:102160000C300C300C300C300C300C300C300C308F
:102170000C301818F81FE0070000000000000000F5
:1021800000000000000003600630063006300C1826
:102190000C180C18180C180C380E30063006700786
:1021A00060036003C001C0010000000000000000E7
:1021B0000000000000000360C361C361C3616633B7
:1021C000663366336633663366336C1B6C1B6C1B7D
:1021D0002C1A3C1E380E380E0000000000000000D3
:1021E0000000000000000FE00C7018303018700C78
:1021F000600EC00780038003C003E006700C301C33
:1022000018180C300E6007E000000000000000000D
:1022100000000000000003C006600C301C383818B5
:10222000300C6006E007C00380018001800180015E
:10223000800180018001800100000000000000009A
:10224000000000000000FC7FFC7F006000300018F0
:10225000000C000600038001C00060003000180080
:102260000C000600FE7FFE7F000000000000000062
:10227000000000000000E003E00360006000600078
:10228000600060006000600060006000600060004E
:102290006000600060006000600060006000E003BB
:1022A000E0030000000030003000600060006000CB
:1022B000C000C000C000C001800180018001000397
:1022C00000030003000600060000000000000000FC
:1022D000000000000000E003E0030003000300032F
:1022E00000030003000300030003000300030003D6
:1022F0000003000300030003000300030003E003E6
:10230000E003000000000000C001C00160036003A2
:10231000600330063006180C180C000000000000A6
:1023200000000000000000000000000000000000AD
:10233000000000000000000000000000000000009D
:10234000000000000000000000000000000000008D
:10235000000000000000FFFFFFFF00000000000081
:102360000000000000000C000C000C000C000C0031
:102370000C00000000000000000000000000000051
:10238000000000000000000000000000000000004D
:10239000000000000000000000000000000000003D
:1023A000F003F8071C0C0C0C000FF00FF80C0C0CD1
:1023B0000C0C1C0FF80FF0180000000000000000CB
:1023C0000000000000001800180018001800180095
:1023D000D803F80F380C18181818181818181818E7
:1023E0001818380CF80FD803000000000000000097
:1023F00000000000000000000000000000000000DD
:10240000C003F007300E180C180018001800180050
:10241000180C300EF007C0030000000000000000A0
:102420000000000000000018001800180018001834
:10243000C01BF01F301C1818181818181818181876
:102440001818301CF01FC01B000000000000000026
:10245000000000000000000000000000000000007C
:10246000C003F00F300C1818F81FF81F18001800E0
:102470003818301CF00FC0070000000000000000FA
:10248000000000000000800FC00FC000C000C000AE
:10249000F007F007C000C000C000C000C000C000CE
:1024A000C000C000C000C00000000000000000002C
:1024B000000000000000000000000000000000001C
:1024C000E00DF80F180E0C0C0C0C0C0C0C0C0C0C7A
:1024D0000C0C180EF80FE00D000C0C0C1C06F80785
:1024E000F001000000001800180018001800180083
:1024F000D807F80F381C18181818181818181818B2
:10250000181818181818181800000000000000000B
:10251000000000000000C000C0000000000000003B
:10252000C000C000C000C000C000C000C000C000AB
:10253000C000C000C000C00000000000000000009B
:10254000000000000000C000C0000000000000000B
:10255000C000C000C000C000C000C000C000C0007B
:10256000C000C000C000C000C000C000C000F80033
:102570007800000000000C000C000C000C000C00A7
:102580000C0C0C060C038C01CC006C00FC009C01B4
:102590008C030C030C060C0C000000000000000073
:1025A000000000000000C000C000C000C000C0006B
:1025B000C000C000C000C000C000C000C000C0001B
:1025C000C000C000C000C00000000000000000000B
:1025D00000000000000000000000000000000000FB
:1025E0007C3CFF7EC7E383C183C183C183C183C1B8
:1025F00083C183C183C183C10000000000000000CB
:1026000000000000000000000000000000000000CA
:102610009807F80F381C18181818181818181818D0
:1026200018181818181818180000000000000000EA
:10263000000000000000000000000000000000009A
:10264000C003F00F300C181818181818181818189C
:102650001818300CF00FC00300000000000000004C
:10266000000000000000000000000000000000006A
:10267000D803F80F380C1818181818181818181844
:102680001818380CF80FD803180018001800180094
:102690001800000000000000000000000000000022
:1026A000C01BF01F301C1818181818181818181804
:1026B0001818301CF01FC01B001800180018001854
:1026C00000180000000000000000000000000000F2
:1026D000B007F003700030003000300030003000F0
:1026E000300030003000300000000000000000002A
:1026F00000000000000000000000000000000000DA
:10270000E003F003380E180C3800F003C007000C8B
:10271000180C380EF007E003000000000000000075
:1027200000000000000000008000C000C000C000E9
:10273000F007F007C000C000C000C000C000C0002B
:10274000C000C000C00780070000000000000000BB
:102750000000000000000000000000000000000079
:1027600018181818181818181818181818181818E9
:102770001818381CF01FE0190000000000000000CD
:102780000000000000000000000000000000000049
:102790000C18180C180C180C3006300630066003A4
:1027A00060036003C001C0010000000000000000E1
:1027B0000000000000000000000000000000000019
:1027C000C141C141C36163636363636336363636B7
:1027D00036361C1C1C1C1C1C0000000000000000E5
:1027E00000000000000000000000000000000000E9
:1027F0001C38381C300C6006C003C003C003C00383
:102800006006300C381C1C3800000000000000007E
:1028100000000000000000000000000000000000B8
:102820001830301830187018600C600CE00CC006BE
:10283000C00680038003800380018001C001F00096
:102840007000000000000000000000000000000018
:10285000FC1FFC1F000C000600038001C00060008C
:1028600030001800FC1FFC1F0000000000000000EA
:1028700000000000000000038001C000C000C00094
:10288000C000C000C0006000600030006000400078
:10289000C000C000C000C000C000C0008001000334
:1028A00000000000000080018001800180018001A3
:1028B0008001800180018001800180018001800110
:1028C0008001800180018001800180018001800100
:1028D0008001000000006000C000C0018001800194
:1028E0008001800180010003000300060003000155
:1028F000800180018001800180018001C0006000B2
:1029000000000000000000000000000000000000C7
:1029100000000000F010F81F080F00000000000089
:1029200000000000000000000000000000000000A7
:102930000000000000000000000000000000000097
:102940000000000000000000000000000000000087
:102950000000000000000000000000000000000077
:102960000000000000000000000000000000C003A4
:10297000300C0810042004200240024002400240B3
:102980000240042004200810300CC00300000000A6
:102990000000000000000000000000000000C00374
:1029A000F00FF81FFC3FFC3FFE7FFE7FFE7FFE7FA7
:1029B000FE7FFC3FFC3FF81FF00FC003000000004B
:1029C0000000000000000000000000000000000007
:1029D0000000E007F00F1818181818181818181821
:1029E0001818F00FE00700000000000000000000D1
:1029F00000000000000000000000000000000000D7
:102A00000000E007F00FF81FF81FF81FF81FF81F6D
:102A1000F81FF00FE00700000000000000000000B9
:102A200000000000000000000000000000000000A6
:102A30000000000000000000000000008001C00352
:102A40006006300C18181818F81FF81F0000000056
:102A50000000000000000000000000000000000076
:102A60000000000000000000000000008001C00322
:102A7000E007F00FF81FF81FF81FF81F0000000014
:102A8000000000000000000000000000F81FF81F18
:102A900018181818300C6006C003800100000000F0
:102AA0000000000000000000000000000000000026
:102AB000000000000000000000000000F81FF81FE8
:102AC000F81FF81FF00FE007C003800100000000AE
:102AD00000000000000000000000000000000000F6
:102AE00000000000000000000000000000000000E6
:102AF0000000E001F00198018C01860186018C0143
:102B00009801F001E001000000000000000000005A
:102B100000000000000000000000000000000000B5
:102B20000000E001F001F801FC01FE01FE01FC01E2
:102B3000F801F001E00100000000000000000000CA
:102B40000000000000000000000000000000000085
:102B500000008007800F80198031806180618031A2
:102B60008019800F800700000000000000000000B6
:102B70000000000000000000000000000000000055
:102B800000008007800F801F803F807F807F803F14
:102B9000801F800F80070000000000000000000080
:102BA000000000000000C0012002200240013006A9
:102BB0000808080808080808080808080808200283
:102BC00020022002200220022002200220022002F5
:102BD000200200000000C001E003E003C001F00794
:102BE000D80DD80DD80DD80DD80DD80DD80D60033F
:102BF00060036003600360036003600360036003BD
:102C0000600300000000C0012002200240013006E5
:102C100008080808080804100220022040012002C9
:102C200020021004080808080410041004200440BE
:102C3000000000000000C001E003E003C001F00755
:102C4000D80DD80DD80DCC19C631C261C0016003B2
:102C500060037006380C180C0C180C180C300C6043
:102C600000000000842C0000000000104C00000058
:102C700050130000D02C00004C0000104402000053
:102C8000601300000000000000000000303132330B
:102C90003435363738394142434445462054783A32
:102CA000202020202C2052783A20202020000000D4
:102CB0000000000000000000000000000000000014
:102CC00000000000000000000000FFFF0000000006
:04000005000000CD2A
:00000001FF
