:020000040800F2
:10000000E0060020CD010008A91500084B150008E6
:10001000A5150008E5020008811D00080000000089
:100020000000000000000000000000003917000878
:10003000A1110008000000003D160008D9180008B2
:10004000E7010008E7010008E7010008E7010008F0
:10005000E7010008E7010008E7010008B9110008FE
:10006000E7010008E70100082D120008E701000879
:10007000E7010008E7010008E7010008E7010008C0
:10008000E7010008E7010008E7010008E7010008B0
:10009000291D0008E7010008E7010008E701000842
:1000A000E7010008E7010008E7010008E701000890
:1000B0003D190008B5190008E7010008E70100082C
:1000C000E7010008E7010008E7010008E701000870
:1000D000E7010008E7010008E7010008E701000860
:1000E000A3110008E7010008E7010008E701000884
:1000F000E7010008E7010008E7010008E701000840
:10010000E7010008E7010008E7010008E70100082F
:10011000E7010008E7010008E7010008E70100081F
:10012000E7010008E7010008E7010008E70100080F
:1001300000F002F800F03AF80AA090E8000C8244BF
:100140008344AAF10107DA4501D100F02FF8AFF29C
:10015000090EBAE80F0013F0010F18BFFB1A43F0A5
:1001600001031847D81C0000F81C0000103A24BFF7
:1001700078C878C1FAD8520724BF30C830C144BF0C
:1001800004680C607047000000230024002500264E
:10019000103A28BF78C1FBD8520728BF30C148BFEA
:1001A0000B6070471FB51FBD10B510BD00F031F8D2
:1001B0001146FFF7F7FF01F021FE00F04FF803B4FE
:1001C000FFF7F2FF03BC00F057F800000948804732
:1001D00009480047FEE7FEE7FEE7FEE7FEE7FEE729
:1001E000FEE7FEE7FEE7FEE704480549054A064B41
:1001F00070470000DD18000831010008E000002011
:10020000E0060020E0020020E00200207047704776
:100210007047754600F02CF8AE4605006946534617
:1002200020F00700854618B020B5FFF7DDFFBDE8D8
:1002300020404FF000064FF000074FF000084FF04D
:10024000000B21F00701AC46ACE8C009ACE8C009DE
:10025000ACE8C009ACE8C0098D46704710B504464B
:10026000AFF300802046BDE81040FFF7A8BF0000B4
:10027000004870477C00002001491820ABBEFEE713
:10028000260002007047000010B54FF4807112483C
:1002900001F059F94FF40071104801F054F94FF48E
:1002A00080710E4801F04FF980210C4801F04BF9A4
:1002B00040210A4801F047F94FF40041084801F095
:1002C00042F94FF48041064801F03DF94FF40051E6
:1002D000034801F038F910BD00080140001001404A
:1002E0000014014000BFFEE721B1012907D0022917
:1002F0000FD109E0826842F0800282600AE08268E1
:1003000042F40042826005E0826842F400028260AA
:1003100000E000BF00BF70471FB51E4800F03CF86A
:1003200001A800F02EFA00F0FFF80121480601F0C4
:1003300087F900208DF80A008DF80B008DF80C006D
:100340008DF80D008DF80E008DF80F008DF8060069
:100350008DF8070005208DF8080000208DF80900B1
:100360000920ADF8040001A90A4800F008F914209A
:100370008DF8000000208DF8010005208DF80200A6
:1003800001208DF80300684601F016F900F0A4F88A
:100390001FBD00000064004010B504460B488442B5
:1003A00009D10121480601F05BF900214FF00070EE
:1003B00001F056F908E00121880601F051F9002109
:1003C0004FF0806001F04CF910BD00000064004067
:1003D00010B50021837A012202FA03F13D4A126826
:1003E00042F001023B4B1A603A4A1C3212688A43BF
:1003F000384B1C331A60027BCAB9364A0C32126879
:100400008A43344B0C331A604288C38842EA034360
:10041000304A4032847A42F834300288838842EA93
:1004200003432C4A4032847A02EBC4025360027BBD
:10043000012A19D1274A0C3212680A43254B0C3382
:100440001A604288038842EA0343224A4032847A8F
:1004500042F83430C288838842EA03431D4A40325E
:10046000847A02EBC4025360C27A3AB9194A121D67
:1004700012688A43174B1B1D1A6006E0154A121DAD
:1004800012680A43134B1B1D1A60028932B9114AC4
:10049000143212688A430F4B14331A600289012AFE
:1004A00006D10C4A143212680A430A4B14331A60FC
:1004B000427B012A06D1074A1C3212680A43054BC7
:1004C0001C331A60034A126822F00102014B1A60C1
:1004D00010BD0000006600401FB500208DF80A0026
:1004E0008DF80B0001208DF80C00A020ADF8000065
:1004F0000020ADF802004EF6FF70ADF804004FF694
:10050000FF70ADF806000020ADF8080001208DF85E
:100510000D006846FFF75CFF01220221014800F050
:1005200025F81FBD0064004008B50121042001F03A
:10053000A7F84FF48050ADF8000003208DF80200BA
:1005400018208DF803006946074800F06FFF4FF44C
:100550000060ADF8000048208DF8030069460248AD
:1005600000F064FF08BD0000000801401AB14369B3
:100570000B43436102E043698B434361704730B5ED
:10058000024600200023146824F00204146014685A
:1005900044F00104146000E05B1C546804F00104A2
:1005A0001CB94FF6FF74A342F6D1546804F001045D
:1005B0000CB900206CE08C79012C04D1146844F053
:1005C0008004146003E0146824F080041460CC7983
:1005D000012C04D1146844F04004146003E0146852
:1005E00024F0400414600C7A012C04D1146844F007
:1005F0002004146003E0146824F0200414604C7A92
:10060000012C04D1146844F01004146003E0146851
:1006100024F0100414608C7A012C04D1146844F086
:100620000804146003E0146824F008041460CC7A11
:10063000012C04D1146844F00404146003E014682D
:1006400024F0040414608C78A407CD7844EA05648F
:100650000D7944EA05444D7944EA05540D886D1E30
:100660002C43D461146824F001041460002300E0DA
:100670005B1C546804F001041CB14FF6FF74A342E4
:10068000F6D1546804F001040CB1002000E0012010
:1006900030BD10B500F5D87303EB01131B6803F0F0
:1006A00004031372137A53B900F5D87303EB0113E3
:1006B0001B6840F2FF7404EA5353136009E000F52D
:1006C000D87303EB01131B686FF0604404EAD30393
:1006D000536000F5D87303EB01131B6803F00203AA
:1006E000537200F5D87303EB01135B6803F00F033B
:1006F000937200F5D87303EB01135B681B0AD37484
:1007000000F5D87303EB01139B68D37200F5D8731F
:1007100003EB01139B681C0A147300F5D87303EBF9
:1007200001139B681C0C547300F5D87303EB011381
:100730009B681B0E937300F5D87303EB0113DB6802
:10074000D37300F5D87303EB0113DB681C0A147430
:1007500000F5D87303EB0113DB681C0C547400F52F
:10076000D87303EB0113DB681B0E937421B9C368C4
:1007700043F02003C36003E0036943F020030361F7
:1007800010BD00218171C171017241728172C1720B
:100790008170C17003210171022141710121018029
:1007A000704710B502460020936803F08063B3F1F0
:1007B000806F00D110E0936803F00063B3F1006F25
:1007C00001D1012008E0936803F08053B3F1805F0A
:1007D00001D1022000E00420042874D002F5C07387
:1007E00003EB00131B6803F0010402F5C07303EB75
:1007F00000131C600B7A7BB94B7A0C8843EA445394
:1008000002F5C07404EB00142468234302F5C0749D
:1008100004EB0014236010E00B7A4C6843EAC40335
:100820004C7A234302F5C07404EB0014246823437C
:1008300002F5C07404EB001423608B7A03F00F03FD
:100840008B7202F5C07303EB00135B6823F00F0497
:1008500002F5C07303EB00135C6002F5C07303EB99
:1008600000135B688C7A234302F5C07404EB001418
:1008700063608B7B1C064B7B44EA03440B7B44EA9E
:100880000323CC7A234302F5C07404EB0014A36065
:100890008B7C1C064B7C44EA03440B7C44EA032318
:1008A000CC7B234302F5C07404EB0014E36002F533
:1008B000C07303EB00131B6843F0010402F5C0731F
:1008C00003EB00131C6010BD10B50246002321B1DC
:1008D000012907D002290FD109E090681D4C00EAD8
:1008E00004030BE090681C4C00EA040306E09068E7
:1008F0001A4C00EA040301E0002300BF00BF184CBB
:10090000181BA34216D007DC83B16FF08060184437
:1009100070B1022818D111E0B0F5007F10D0114C51
:10092000204448B1B0F5003F0ED10BE002230DE0AA
:1009300000230BE0002309E0002307E0012305E08A
:10094000012303E0012301E0002300BF00BFD8B270
:1009500010BD0000030000040003000800000310A5
:10096000000100080001FFF73448406847F23051A9
:10097000884203D901203149087202E000202F4942
:1009800008722F48406847F23051884203D901204D
:100990002B49087202E00020294908722948406862
:1009A00047F23051884203D901202649087202E0FB
:1009B0000020244908722448406847F23051884298
:1009C00003D901202049087202E000201E49087264
:1009D0001E48406847F23051884203D901201B4924
:1009E000087202E00020194908721948406847F26D
:1009F0003051884203D901201549087202E00020D5
:100A0000134908721348406847F23051884203D9AD
:100A100001201049087202E000200E4908720E48B9
:100A2000406847F23051884203D901200A490872D0
:100A300002E0002008490872704700001C000020F6
:100A40002800002034000020400000204C0000203E
:100A500058000020640000207000002010B53B48C2
:100A6000008838B901203A4908700846007800F03B
:100A7000D3F956E035480088012811D1354800687F
:100A800000EB8000C000334948603348006800EB49
:100A90008000C0003049486002202D49087040E0C5
:100AA0002A480088022811D12C48006800EB8000F9
:100AB000C0002A4948602A48006800EB8000C00056
:100AC000274948600320224908702AE01F4800880F
:100AD000032811D12348006800EB8000C0002149A1
:100AE00048602148006800EB8000C0001E49486053
:100AF00004201749087014E014480088042810D115
:100B00001A48006800EB8000C00018494860184887
:100B1000006800EB8000C0001549486001200C49C6
:100B200008700B48007800F077F908480088401CEE
:100B30000649088008460088052806DB0020088052
:100B4000FFF7A2FB02200B49087010BD1600002021
:100B5000180000201C0000204C000020280000206D
:100B600058000020340000206400002040000020D5
:100B7000700000200300002008B501213C2000F097
:100B80007FFD4FF48070ADF8000003208DF8020067
:100B900010208DF8030069461A4800F047FC4FF416
:100BA0007070ADF8000003208DF8020010208DF861
:100BB00003006946144800F039FC4FF46040ADF87A
:100BC000000003208DF8020010208DF80300694614
:100BD0000E4800F02BFCFFF757FB0220ADF8000099
:100BE00004208DF803006946094800F01FFC10201E
:100BF000ADF8000004208DF803006946024800F0BB
:100C000015FC08BD0008014000100140001401401F
:100C1000000C014008B50121782000F031FD4FF4AF
:100C20007870ADF8000003208DF8020010208DF8D8
:100C300003006946164800F0F9FB4FF4C050ADF8C8
:100C4000000003208DF8020010208DF80300694693
:100C5000104800F0EBFBFF20ADF8000001208DF8FC
:100C6000020010208DF8030069460B4800F0DEFBFF
:100C70000120ADF800008DF8020010208DF803006F
:100C80006946064800F0D2FB00F00AF808BD0000F3
:100C9000000C014000100140001401400018014008
:100CA00010B54FF40061214800F04DFC01212048AF
:100CB00000F049FC04211E4800F045FC10211C48AE
:100CC00000F041FC40211A4800F03DFC2021194869
:100CD00000F039FC8021174800F035FC4FF400711A
:100CE000144800F030FC4FF48051104800F02BFC09
:100CF00002210F4800F027FC08210D4800F023FCDA
:100D000020210B4800F01FFC8021094800F01BFC4B
:100D10004021084800F017FC4FF48071054800F0AE
:100D200012FC0121044800F00EFC10BD001001402F
:100D300000140140000C01400018014010B54FF4B0
:100D40000061214800F0FDFB0121204800F0F9FB83
:100D500004211E4800F0F5FB10211C4800F0F1FBB7
:100D600040211A4800F0EDFB2021194800F0E9FB72
:100D70008021174800F0E5FB4FF40071144800F0A3
:100D8000E0FB4FF48051104800F0DBFB02210F48DC
:100D900000F0D7FB08210D4800F0D3FB20210B48C1
:100DA00000F0CFFB8021094800F0CBFB4021084830
:100DB00000F0C7FB4FF48071054800F0C2FB012131
:100DC000044800F0BEFB10BD0010014000140140BB
:100DD000000C01400018014070B504460D46052086
:100DE0000C4908700220487008468470012D02D119
:100DF0000120C87002E002200649C870042105489D
:100E000000F0BEF9034908710521024800F096FC84
:100E100070BD00000800002010B50446012C06D06B
:100E2000022C35D0032C64D0042C7DD194E04FF4F7
:100E30008071634800F085FB4FF40071614800F059
:100E400082FB4FF480715F4800F07DFB80215D489C
:100E500000F079FB40215B4800F073FB4FF4004148
:100E6000594800F070FB4FF48041574800F06BFB8D
:100E70004FF40051544800F066FB002053490860CD
:100E8000534908600120534908705349087095E0A0
:100E90004FF480714A4800F056FB4FF40071494806
:100EA00000F04FFB4FF48071464800F04CFB80216E
:100EB000444800F048FB4021424800F044FB4FF416
:100EC0000041414800F03DFB4FF480413E4800F0B6
:100ED0003AFB4FF400513C4800F035FB00203F49FD
:100EE00008603F49086002203A4908703A49087092
:100EF00064E04FF48071324800F025FB4FF400713C
:100F0000304800F020FB4FF480712E4800F019FBB0
:100F100080212C4800F017FB40212A4800F013FBE9
:100F20004FF40041284800E047E000F00CFB4FF48C
:100F30008041254800F005FB4FF40051224800F0A5
:100F400002FB002027490860274908600320214947
:100F500008702149087031E04FF48071184800F0A2
:100F6000F2FA4FF40071174800F0EDFA4FF4807177
:100F7000144800F0E8FA8021124800F0E2FA40211B
:100F8000104800F0E0FA4FF400410F4800F0DBFA9F
:100F90004FF480410C4800F0D6FA4FF400510A4853
:100FA00000F0CFFA002011490860114908600420C0
:100FB000084908700849087000E000BF00BF10BD74
:100FC0000008014000100140001401401C000020F6
:100FD0004C000020140000201500002028000020F4
:100FE0005800002034000020640000204000002051
:100FF0007000002010B500242CE0601CC4B2052055
:1010000023490870012048708870FF20C8700421AF
:101010001F4800F0B5F81E49087105211C4800F072
:101020008DFB00201B49087004201B49087000BF7D
:10103000194800780428FBD017480078032803D00B
:1010400000201649087006E0032C03DB0120134939
:10105000087000E0D1E700BF05200D4908700220AC
:101060004870012088700C480078012801D1C870B0
:1010700002E002200649C8700421054800F080F80B
:10108000034908710521024800F058FB10BD00001B
:1010900008000020000000200200002001000020C5
:1010A00010B501201849087000BF174800780228C1
:1010B000FBD1FFF759FC1548017A0220FFF78CFE9F
:1010C0001348017A0320FFF787FE1248017A0420B3
:1010D000FFF782FE1048017A0520FFF77DFE0F48DA
:1010E000017A0620FFF778FE0D48017A0720FFF706
:1010F00073FE0C48017A0820FFF76EFE0A48017A59
:101100000920FFF769FE10BD030000201C0000202D
:101110002800002034000020400000204C00002067
:101120005800002064000020700000208178012910
:1011300009D1C178FF2906D10178052903D1012100
:10114000034A117002E00221014A11707047000049
:101150000200002010B505200849087003204870DF
:10116000FF208870C8700421044800F009F8034982
:1011700008710521014800F0E1FA10BD08000020C7
:1011800010B502460B460020002104E0545C0444E4
:10119000E0B24C1CE1B29942F8DBC0F1FF0010BD97
:1011A000704710B54FF4805000F080F818B14FF43C
:1011B000805000F075F810BD10B5022000F076F8F0
:1011C000F8B1022000F06CF813480078012805D12E
:1011D00012480068401C114908601CE00E48007865
:1011E000022805D10E480068401C0D49086012E035
:1011F00009480078032805D10A480068401C0949BD
:10120000086008E004480078042804D10648006813
:10121000401C0549086010BD140000201C0000207F
:1012200028000020340000204000002010B51020CD
:1012300000F03CF8F8B1102000F032F813480078C4
:10124000012805D112480068401C114908601CE0C3
:101250000E480078022805D10E480068401C0D4950
:10126000086012E009480078032805D10A480068A0
:10127000401C0949086008E004480078042804D1AB
:1012800006480068401C0549086010BD1500002094
:101290004C00002058000020640000207000002056
:1012A0000149086070470000140401400146002015
:1012B0000022074B1B6803EA0102054B14331B682D
:1012C0000B4013B10AB1012000E00020704700007C
:1012D00000040140002123498279002A3AD00A46BD
:1012E000126803689A430B461A600A1D1268036865
:1012F0009A430B1D1A60027911440A6803681A4365
:101300000A60184A0832126803689A43154B08337A
:101310001A601A1D126803689A43124B0C331A6044
:101320004279102A0ED11A1F126803681A430D4B16
:1013300008331A601A1D126803681A43094B0C33EC
:101340001A600DE00749427911440A6803681A439C
:101350000A6005E0027911440A6803689A430A604A
:1013600070470000000401400EB50121084600F05E
:1013700087F90121084600F039F80220009000208A
:101380008DF8040008208DF8050001208DF8060076
:101390006846FFF79FFF0421022000F027F8102085
:1013A000009000208DF804006846FFF793FF0720A7
:1013B0008DF8080000208DF8090001208DF80A0042
:1013C0008DF80B0002A800F0F7F80A208DF808004D
:1013D00000208DF8090002208DF80A0001208DF808
:1013E0000B0002A800F0E8F80EBD000030B50022A6
:1013F0008B071C0F0F2303FA04F20B4B8C1053F8CE
:1014000024309343084C8D1044F8253023468C102B
:1014100053F824308C07240F00FA04F42343024CC1
:101420008D1044F8253030BD080001402DE9F04111
:10143000024600250026002000230024002791F802
:1014400003C00CF00F0591F803C00CF0100CBCF1B8
:10145000000F03D091F802C04CEA050591F800C0D6
:10146000BCF1000F31D0146800202BE04FF0010CCC
:101470000CFA00F3B1F800C00CEA03069E4220D13A
:1014800083004FF00F0C0CFA03F7BC4305FA03FC82
:101490004CEA040491F803C0BCF1280F06D14FF0C8
:1014A000010C0CFA00FCC2F814C00AE091F803C069
:1014B000BCF1480F05D14FF0010C0CFA00FCC2F84A
:1014C00010C0401C0828D1D31460B1F800C0BCF192
:1014D000FF0F34DD546800202EE000F1080C4FF0BF
:1014E000010808FA0CF3B1F800C00CEA03069E42AA
:1014F00021D183004FF00F0C0CFA03F7BC4305FA1F
:1015000003FC4CEA040491F803C0BCF1280F05D198
:1015100000F1080C08FA0CF8C2F8148091F803C026
:10152000BCF1480F07D100F1080C4FF0010808FA90
:101530000CF8C2F81080401C0828CED35460BDE8D7
:10154000F081416170470161704700BFFEE7000014
:1015500010B54FF480610348FFF7F3FFFFF7EEFB90
:1015600010BD00000010014008B50121102000F05E
:1015700087F84FF48060ADF8000003208DF802007A
:1015800010208DF8030069460548FFF74FFF4FF420
:1015900080610348FFF7D7FFFFF73CFB08BD000061
:1015A0000010014000BFFEE7704710B54FF4A06087
:1015B00000F03AF810BD000070B5002100230F22A2
:1015C000C47804B3154C246804F4E064C4F5E06402
:1015D000210AC1F10403CA40447804FA03F1847873
:1015E0001440214309010E4C0678A155047804F0FB
:1015F0001F050124AC4005786D11AD0005F1E02513
:10160000C5F8004109E0047804F01F050124AC404E
:10161000044D0678761145F8264070BD0CED00E0CB
:1016200000E400E080E100E002490143024A116069
:10163000704700000000FA050CED00E07047000064
:1016400029B1064AD2690243044BDA6104E0034A35
:10165000D2698243014BDA617047000000100240FA
:1016600029B1064A12690243044B1A6104E0034A95
:1016700012698243014B1A6170470000001002405A
:1016800029B1064A92690243044B9A6104E0034A75
:1016900092698243014B9A6170470000001002403A
:1016A00029B1064AD2680243044BDA6004E0034AD7
:1016B000D2688243014BDA6070470000001002409C
:1016C0002DE9F04107460D46052D04D002201849AA
:1016D0000870BDE8F081174E002405E007F10B000B
:1016E000005D3055601CC4B2AC42F7DB04211148E8
:1016F000FFF746FD0F490979884203D002200C49C3
:101700000870E6E70B484078012804D0022806D08C
:10171000032806D104E00748FFF708FD05E004E0D0
:1017200003E002200249087000BF00BF00BFD0E7FD
:10173000020000200D000020704700002DE9F0435A
:1017400085B006460D460024A0464FF08509CDF829
:10175000009000208DF808008DF80900082D0FDC9E
:10176000002D0DDD8DF80A5000BF06E016F8011BB4
:101770000DF10B000155601C84B2AC42F6DB02E0B7
:1017800000208DF80A0069460E48FFF70AF8074660
:1017900001E0601C84B239460A48FFF795F8012839
:1017A00002D0B4F57A7FF4DBB4F57A7F05D13946FF
:1017B0000448FEF799FD4FF00108404605B0BDE82A
:1017C000F08300000064004010B500F001F810BD87
:1017D0000CB50020019000903348006840F4803040
:1017E0003149086000BF3048006800F400300090C4
:1017F0000198401C0190009818B90198B0F5A06FAD
:10180000F1D12948006800F4003010B101200090A7
:1018100001E0002000900098012843D1234800688F
:1018200040F01000214908600846006820F00300DD
:1018300008600846006840F0020008601A484068E6
:10184000194948600846406848600846406840F4C6
:10185000806048600846406820F47C104860084674
:10186000406840F4E81048600846006840F0807026
:10187000086000BF0C48006800F000700028F9D034
:101880000948406820F0030007494860084640685E
:1018900040F00200486000BF0348406800F00C00C0
:1018A0000828F9D10CBD00000010024000200240C1
:1018B000042808D14FF0E021096941F004014FF0FC
:1018C000E022116107E04FF0E021096921F00401F5
:1018D0004FF0E022116170477047000010B51348C7
:1018E000006840F00100114908600846406810494E
:1018F00008400E494860084600680E4908400B49F8
:1019000008600846006820F48020086008464068A7
:1019100020F4FE0048604FF41F008860FFF754FF7A
:101920004FF000600449086010BD00000010024044
:101930000000FFF8FFFFF6FE08ED00E010B5012102
:10194000880700F04FF928B10121880700F046F818
:1019500000F002F810BD000010B51248007804280D
:101960000DD111480078401C0F49087008460078D6
:10197000C82804DB0020087003200A4908700B48BF
:10198000007801280CD10A480078401C08490870EA
:1019900008460078192803DB00200870FFF75EF87E
:1019A00010BD000002000020000000200300002005
:1019B0001200002010B50121054800F013F928B1EC
:1019C0000121034800F00AF800F004F810BD0000FF
:1019D000000400407047CA4302827047CA43028233
:1019E000704721B1028842F00102028004E00288BF
:1019F0004FF6FE731A4002807047000010B504468F
:101A00006848844208D10121C014FFF749FE002133
:101A1000E014FFF745FEC4E0B4F1804F08D1012186
:101A20000846FFF71DFE00210120FFF719FEB8E070
:101A30005D48844208D101210220FFF711FE0021F8
:101A40000220FFF70DFEACE05848844208D1012186
:101A50000420FFF705FE00210420FFF701FEA0E0AF
:101A60005348844208D101210820FFF7F9FD0021E5
:101A70000820FFF7F5FD94E04E48844208D101218B
:101A80001020FFF7EDFD00211020FFF7E9FD88E0B1
:101A90004948844208D101212020FFF7E1FD0021BF
:101AA0002020FFF7DDFD7CE04448844208D101217D
:101AB0004014FFF7F5FD00216014FFF7F1FD70E021
:101AC0003F48844209D10121C804FFF7E9FD002104
:101AD0004FF40020FFF7E4FD63E03A48844209D167
:101AE00001210805FFF7DCFD00214FF48010FFF70E
:101AF000D7FD56E03448844209D101214805FFF75B
:101B0000CFFD00214FF40010FFF7CAFD49E02F4838
:101B1000844208D101214020FFF7A2FD002140208E
:101B2000FFF79EFD3DE02A48844208D10121802034
:101B3000FFF796FD00218020FFF792FD31E0254858
:101B4000844208D101218015FFF78AFD0021A015EC
:101B5000FFF786FD25E02048844209D101210804D1
:101B6000FFF79EFD00214FF48030FFF799FD18E04C
:101B70001A48844209D101214804FFF791FD002150
:101B80004FF40030FFF78CFD0BE01548844208D17C
:101B900001218804FFF784FD00214FF48020FFF726
:101BA0007FFD10BD002C01400004004000080040F3
:101BB000000C0040001000400014004000340140C0
:101BC000004C01400050014000540140001800400A
:101BD000001C004000200040004001400044014043
:101BE0000048014030B50246002000230024158A39
:101BF00005EA0103958905EA010413B10CB101203E
:101C000000E0002030BD1AB183890B43838102E0DC
:101C100083898B4383817047002202881D4B984241
:101C20000ED01D4B98420BD0B0F1804F08D01B4B0B
:101C3000984205D01A4B984202D01A4B984204D1D0
:101C40004FF68F731A404B881A43174B984207D0B0
:101C5000164B984204D04FF6FF431A40CB881A43E4
:101C600002808B8883850B8803850A4B98420BD0B2
:101C7000094B984208D00E4B984205D00D4B984224
:101C800002D00D4B984201D10B7A03860123838247
:101C900070470000002C0140003401400004004067
:101CA00000080040000C00400010004000140040FC
:101CB0000040014000440140004801401FB501219F
:101CC0000846FFF7BDFC4FF08040FFF797FE40F25B
:101CD000E730ADF808004720ADF804000020ADF86B
:101CE0000A00ADF8060001A94FF08040FFF794FF0D
:101CF00001218807FFF76FFE012211469007FFF7C9
:101D000082FF1C208DF8000000208DF801000120CA
:101D10008DF802008DF803006846FFF74DFC0121A5
:101D20008807FFF75EFE1FBD10B586B0002001904A
:101D300002908DF80C008DF80E008DF8170000242D
:101D400005E000210DF10F000155601CC4B2082C04
:101D5000F7DB01AA00210948FEF79BFC9DF80C0067
:101D600048B99DF80E00002804DD9DF80E1001A86A
:101D7000FFF7A6FC00BF06B010BD000000640040E5
:101D800000BFFEE710B504466FF00400FFF790FDBA
:101D9000E11704EB5171C1F3C701074A11701046F6
:101DA000007800EB4001C1EBC0104FF6FF7101EA73
:101DB000C0000249088010BD040000200600002079
:101DC00001460D4A12884A434FF0E0235A6100222F
:101DD0009A6101221A6100BF4FF0E022106900F001
:101DE00001021AB100F48032002AF5D000224FF02F
:101DF000E0231A619A61704706000020FFF76EFD2C
:101E0000FFF7D3FB4820FFF7BDFFFEF7B5FEFFF756
:101E1000ABFAFFF7A9FBFEF77FFAFFF74FFF4FF48E
:101E20007A70FFF7CDFFFFF7E5F8FFF739F9FFF715
:101E30008FFBFFF78FF900BFFEE700005C1E000874
:101E4000000000201C0000006C010008781E000843
:101E50001C000020C40600008801000800000000EB
:101E60000000000000000000000000000000000072
:081E7000000000000100000069
:0400000508000131BD
:00000001FF
