:020000040800F2
:100000002004002001010008290C0008ED0B000865
:10001000250C00086D010008A11600080000000072
:100020000000000000000000000000008110000837
:100030005909000800000000850F0008251200087B
:100040001B0100081B0100081B0100081B01000820
:100050001B0100081B0100081B0100081B01000810
:100060001B0100081B0100081B0100081B01000800
:100070001B0100081B0100081B0100081B010008F0
:100080001B0100081B0100081B0100081B010008E0
:10009000491600081B0100081B0100081B0100088D
:1000A0001B0100081B0100081B0100081B010008C0
:1000B00089120008D51200081B0100081B01000866
:1000C0001B0100081B0100081B0100081B010008A0
:1000D0001B0100081B0100081B0100081B01000890
:1000E0001B0100081B0100081B010008DFF80CD0F1
:1000F00000F02AF8004800473D17000820040020BF
:100100000648804706480047FEE7FEE7FEE7FEE7B1
:10011000FEE7FEE7FEE7FEE7FEE7FEE7291200083E
:10012000ED000008D2B201E000F8012B491EFBD21D
:1001300070470022F6E710B513460A4604461946F2
:10014000FFF7F0FF204610BD064C074D06E0E068C3
:1001500040F0010394E8070098471034AC42F6D30E
:10016000FFF7C8FF80170008A017000800BFFEE7D0
:1001700021B1012907D002290FD109E0826842F09C
:10018000800282600AE0826842F40042826005E0F8
:10019000826842F40002826000E000BF00BF704746
:1001A0001FB51E4800F03CF801A800F02EFA00F040
:1001B000FFF80121480600F0E7FE00208DF80A0054
:1001C0008DF80B008DF80C008DF80D008DF80E00E9
:1001D0008DF80F008DF806008DF8070005208DF8CA
:1001E000080000208DF809000920ADF8040001A9DD
:1001F0000A4800F008F914208DF8000000208DF85E
:10020000010005208DF8020001208DF803006846EA
:1002100000F012FD00F0A4F81FBD000000640040D3
:1002200010B504460B48844209D10121480600F06C
:10023000BBFE00214FF0007000F0B6FE08E0012187
:10024000880600F0B1FE00214FF0806000F0ACFEA7
:1002500010BD00000064004010B50021837A012227
:1002600002FA03F13D4A126842F001023B4B1A6068
:100270003A4A1C3212688A43384B1C331A60027B9C
:10028000CAB9364A0C3212688A43344B0C331A60AE
:100290004288C38842EA0343304A4032847A42F8B3
:1002A00034300288838842EA03432C4A4032847AFD
:1002B00002EBC4025360027B012A19D1274A0C3297
:1002C00012680A43254B0C331A604288038842EABD
:1002D0000343224A4032847A42F83430C288838809
:1002E00042EA03431D4A4032847A02EBC40253605F
:1002F000C27A3AB9194A121D12688A43174B1B1D5C
:100300001A6006E0154A121D12680A43134B1B1DA2
:100310001A60028932B9114A143212688A430F4BAB
:1003200014331A600289012A06D10C4A1432126869
:100330000A430A4B14331A60427B012A06D1074A4A
:100340001C3212680A43054B1C331A60034A1268B8
:1003500022F00102014B1A6010BD0000006600404F
:100360001FB500208DF80A008DF80B0001208DF8D4
:100370000C008020ADF800000020ADF802004EF621
:10038000FF70ADF804004FF6FF70ADF806000020D6
:10039000ADF8080001208DF80D006846FFF75CFFFE
:1003A00001220221014800F025F81FBD0064004031
:1003B00008B50121042000F007FE4FF48050ADF88D
:1003C000000003208DF8020018208DF80300694614
:1003D000074800F0C2FA4FF40060ADF80000482072
:1003E0008DF803006946024800F0B7FA08BD000026
:1003F000000801401AB143690B43436102E04369BD
:100400008B434361704730B50246002000231468D7
:1004100024F002041460146844F00104146000E045
:100420005B1C546804F001041CB94FF6FF74A3422E
:10043000F6D1546804F001040CB900206CE08C790A
:10044000012C04D1146844F08004146003E01468A3
:1004500024F080041460CC79012C04D1146844F099
:100460004004146003E0146824F0400414600C7A23
:10047000012C04D1146844F02004146003E01468D3
:1004800024F0200414604C7A012C04D1146844F048
:100490001004146003E0146824F0100414608C7AD3
:1004A000012C04D1146844F00804146003E01468BB
:1004B00024F008041460CC7A012C04D1146844F0B0
:1004C0000404146003E0146824F0040414608C78BD
:1004D000A407CD7844EA05640D7944EA05444D79D2
:1004E00044EA05540D886D1E2C43D461146824F031
:1004F00001041460002300E05B1C546804F0010454
:100500001CB14FF6FF74A342F6D1546804F0010405
:100510000CB1002000E0012030BD10B500F5D8730B
:1005200003EB01131B6803F004031372137A53B92E
:1005300000F5D87303EB01131B6840F2FF7404EA63
:100540005353136009E000F5D87303EB01131B68E4
:100550006FF0604404EAD303536000F5D87303EBF3
:1005600001131B6803F00203537200F5D87303EB09
:1005700001135B6803F00F03937200F5D87303EB6C
:1005800001135B681B0AD37400F5D87303EB0113E6
:100590009B68D37200F5D87303EB01139B681C0AA8
:1005A000147300F5D87303EB01139B681C0C547390
:1005B00000F5D87303EB01139B681B0E937300F5D2
:1005C000D87303EB0113DB68D37300F5D87303EB27
:1005D0000113DB681C0A147400F5D87303EB0113D4
:1005E000DB681C0C547400F5D87303EB0113DB6853
:1005F0001B0E937421B9C36843F02003C36003E06A
:10060000036943F02003036110BD00218171C171B2
:10061000017241728172C1728170C17003210171D6
:100620000221417101210180704710B5024600206E
:10063000936803F08063B3F1806F00D110E093689A
:1006400003F00063B3F1006F01D1012008E093686B
:1006500003F08053B3F1805F01D1022000E0042059
:10066000042874D002F5C07303EB00131B6803F079
:10067000010402F5C07303EB00131C600B7A7BB915
:100680004B7A0C8843EA445302F5C07404EB00141F
:100690002468234302F5C07404EB0014236010E0C7
:1006A0000B7A4C6843EAC4034C7A234302F5C074C6
:1006B00004EB00142468234302F5C07404EB001417
:1006C00023608B7A03F00F038B7202F5C07303EB88
:1006D00000135B6823F00F0402F5C07303EB0013F3
:1006E0005C6002F5C07303EB00135B688C7A2343F4
:1006F00002F5C07404EB001463608B7B1C064B7B1B
:1007000044EA03440B7B44EA0323CC7A234302F5F7
:10071000C07404EB0014A3608B7C1C064B7C44EA81
:1007200003440B7C44EA0323CC7B234302F5C074CF
:1007300004EB0014E36002F5C07303EB00131B68C5
:1007400043F0010402F5C07303EB00131C6010BDFD
:1007500010B50246002321B1012907D002290FD18B
:1007600009E090681D4C00EA04030BE090681C4C03
:1007700000EA040306E090681A4C00EA040301E072
:10078000002300BF00BF184C181BA34216D007DC83
:1007900083B16FF08060184470B1022818D111E065
:1007A000B0F5007F10D0114C204448B1B0F5003FA7
:1007B0000ED10BE002230DE000230BE0002309E043
:1007C000002307E0012305E0012303E0012301E00A
:1007D000002300BF00BFD8B210BD0000030000041A
:1007E0000003000800000310000100080001FFF7EB
:1007F00010B510211B4800F046F94021194800F0BF
:1008000042F90121184800F03EF94FF48061164882
:1008100000F039F94FF48051134800F034F94FF4E7
:100820000051114800F02FF94FF480410E4800F0BC
:100830002AF940210D4800F026F980210B4800F0EC
:1008400022F94FF40071094800F01DF94FF480714E
:10085000044800F018F94FF40071034800F013F950
:1008600010BD000000080140000C014000100140D4
:1008700010B510211B4800F004F94021194800F080
:1008800000F90121184800F0FCF84FF48061164887
:1008900000F0F7F84FF48051134800F0F2F84FF4ED
:1008A0000051114800F0EDF84FF480410E4800F07F
:1008B000E8F840210D4800F0E4F880210B4800F0F2
:1008C000E0F84FF40071094800F0DBF84FF4807154
:1008D000044800F0D6F84FF40071034800F0D1F856
:1008E00010BD000000080140000C01400010014054
:1008F00070B504460D460F480021016001710420C7
:100900000C4908700220487008468470702D02D18E
:100910000120C87002E002200649C8700421054881
:1009200000F00AF8064603480671052100F0AAFB0C
:1009300070BD00000800002010B502460B460020E4
:10094000002104E0545C0444E0B24C1CE1B2994242
:10095000F8DBC0F1FF0010BD70472DE9F041024601
:1009600000250026002000230024002791F803C062
:100970000CF00F0591F803C00CF0100CBCF1000F47
:1009800003D091F802C04CEA050591F800C0BCF113
:10099000000F31D0146800202BE04FF0010C0CFA4E
:1009A00000F3B1F800C00CEA03069E4220D1830098
:1009B0004FF00F0C0CFA03F7BC4305FA03FC4CEAAA
:1009C000040491F803C0BCF1280F06D14FF0010CCC
:1009D0000CFA00FCC2F814C00AE091F803C0BCF1A4
:1009E000480F05D14FF0010C0CFA00FCC2F810C002
:1009F000401C0828D1D31460B1F800C0BCF1FF0F2F
:100A000034DD546800202EE000F1080C4FF001089E
:100A100008FA0CF3B1F800C00CEA03069E4221D19B
:100A200083004FF00F0C0CFA03F7BC4305FA03FCEC
:100A30004CEA040491F803C0BCF1280F05D100F181
:100A4000080C08FA0CF8C2F8148091F803C0BCF145
:100A5000480F07D100F1080C4FF0010808FA0CF814
:100A6000C2F81080401C0828CED35460BDE8F08145
:100A70000246002093680B400BB1012000E00020EB
:100A800070474161704701617047000010B508214F
:100A90005148FFF7EDFF08B9012000E000204F4961
:100AA000097808434D49087020214B48FFF7E0FFC3
:100AB00008B9012000E00020484949780843474927
:100AC000487080214448FFF7D3FF08B9012000E0B7
:100AD00000204249897808434049887002214048F3
:100AE000FFF7C6FF08B9012000E000203B49C978A4
:100AF00008433A49C8704FF400613948FFF7B8FF1E
:100B000008B9012000E0002034490979084333493D
:100B100008714FF400613348FFF7AAFF08B90120BC
:100B200000E000202D49497908432C4948714FF4D1
:100B300080612C48FFF79CFF08B9012000E00020ED
:100B4000264989790843254988714FF480612248F4
:100B5000FFF78EFF08B9012000E000201F49C97986
:100B600008431E49C8714FF400711B48FFF780FF0E
:100B700008B9012000E000201849097A0843174904
:100B800008724FF480511748FFF772FF08B901202F
:100B900000E000201149497A0843104948720421B5
:100BA0001148FFF765FF08B9012000E000200B495C
:100BB000897A0843094988724FF480710848FFF721
:100BC00057FF08B9012000E000200449C97A084312
:100BD0000249C87210BD0000000801401400002046
:100BE000000C0140001001400014014000BFFEE76E
:100BF00008B50121102000F0E7F90420ADF800004D
:100C000003208DF8020010208DF803006946044887
:100C1000FFF7A3FE04210248FFF735FF08BD0000DF
:100C20000010014000BFFEE7704710B54FF4A06010
:100C300000F03AF810BD000070B5002100230F222B
:100C4000C47804B3154C246804F4E064C4F5E0648B
:100C5000210AC1F10403CA40447804FA03F18478FC
:100C60001440214309010E4C0678A155047804F084
:100C70001F050124AC4005786D11AD0005F1E0259C
:100C8000C5F8004109E0047804F01F050124AC40D8
:100C9000044D0678761145F8264070BD0CED00E055
:100CA00000E400E080E100E002490143024A1160F3
:100CB000704700000000FA050CED00E010B50024BC
:100CC0002CE0601CC4B20420234908700120487045
:100CD0008870FF20C87004211F48FFF72DFE1E49B1
:100CE000087105211C4800F0CDF900201B4908704F
:100CF00004201B49087000BF194800780428FBD065
:100D000017480078032803D000201649087006E031
:100D1000032C03DB01201349087000E0D1E700BF7A
:100D200004200D49087002204870012088700C488A
:100D30000078012801D1C87002E002200649C8707D
:100D400004210548FFF7F8FD034908710521024811
:100D500000F098F910BD00000800002000000020FD
:100D6000020000200100002008B501213C2000F015
:100D70002BF94FF4A870ADF8000003208DF80200A5
:100D800010208DF8030069462C48FFF7E6FD47F276
:100D90000160ADF8000003208DF8020010208DF8EE
:100DA000030069462648FFF7D8FD4FF43070ADF8D0
:100DB000000003208DF8020010208DF80300694622
:100DC0002048FFF7CAFDFFF713FD4FF4D560ADF8DB
:100DD000000003208DF8020004208DF8030069460E
:100DE0001648FFF7BAFD40F60210ADF800000320E8
:100DF0008DF8020004208DF8030069461048FFF7C3
:100E0000ACFD4FF4E050ADF8000003208DF8020077
:100E100004208DF8030069460A48FFF79EFD042070
:100E2000ADF8000003208DF8020004208DF80300C7
:100E300069460548FFF791FD08BD00000008014024
:100E4000000C0140001001400014014038B50020A2
:100E50000090FFF7CDFCFFF719FE002420E01DF8FD
:100E6000040004EB4401314A515C08430DF80400CE
:100E70001DF8041004EB4400401C105C41EA4000E3
:100E8000C0B20DF804001DF8041004EB4400801CEF
:100E9000105C41EA8000C0B20DF80400601CC4B2CE
:100EA000042CDCDBFFF7E4FC4FF47A7000F028FC44
:100EB000FFF7ECFD002422E01DF8040004EB4401E0
:100EC0001A4A515C40EA0110C0B20DF804001DF846
:100ED000041004EB4400401C105C41EA4010C0B216
:100EE0000DF804001DF8041004EB4400801C105C95
:100EF00041EA8010C0B20DF80400601CC4B2042C9A
:100F0000DADB9DF800100220FFF7F2FC9DF80110DB
:100F10000320FFF7EDFC9DF802100420FFF7E8FC2A
:100F20009DF803100520FFF7E3FC38BD14000020F6
:100F30008178012909D1C178FF2906D101780429D6
:100F400003D10121034A117002E00221014A11700C
:100F5000704700000200002010B504200849087006
:100F600003204870FF208870C87004210448FFF7F0
:100F7000E3FC034908710521014800F083F810BD26
:100F8000080000207047000029B1064AD2690243D8
:100F9000044BDA6104E0034AD2698243014BDA610F
:100FA000704700000010024029B1064A126902434E
:100FB000044B1A6104E0034A12698243014B1A612F
:100FC000704700000010024029B1064A92690243AE
:100FD000044B9A6104E0034A92698243014B9A618F
:100FE000704700000010024029B1064AD26802434F
:100FF000044BDA6004E0034AD2688243014BDA60B2
:1010000070470000001002402DE9F04107460D46F0
:10101000052D04D0022018490870BDE8F081174E54
:10102000002405E007F10B00005D3055601CC4B2E0
:10103000AC42F7DB04211148FFF77EFC0F49097928
:10104000884203D002200C490870E6E70B4840783C
:10105000012804D0022806D0032806D104E007485E
:10106000FFF766FF05E004E003E002200249087094
:1010700000BF00BF00BFD0E7020000200D0000202D
:10108000704700002DE9F04385B006460D46002468
:10109000002714216846FFF74CF84FF08408CDF87C
:1010A000008000208DF808008DF80900082D0FDC65
:1010B000002D0DDD8DF80A5000BF06E016F8011B6B
:1010C0000DF10B000155601C84B2AC42F6DB02E06E
:1010D00000208DF80A0069460D48FFF7A6FA814600
:1010E00001E0601C84B249460948FFF731FB012842
:1010F00002D0B4F57A7FF4DBB4F57A7F04D14946A7
:101100000348FFF735F80127384605B0BDE8F083FE
:101110000064004010B500F001F810BD0CB50020CF
:10112000019000903348006840F4803031490860F5
:1011300000BF3048006800F4003000900198401C67
:101140000190009818B90198B0F5A06FF1D1294825
:10115000006800F4003010B10120009001E0002090
:1011600000900098012843D12348006840F0100007
:10117000214908600846006820F00300086008461E
:10118000006840F0020008601A4840681949486049
:101190000846406848600846406840F480604860FF
:1011A0000846406820F47C1048600846406840F4D7
:1011B000E81048600846006840F08070086000BF92
:1011C0000C48006800F000700028F9D00948406819
:1011D00020F00300074948600846406840F00200DC
:1011E000486000BF0348406800F00C000828F9D1AF
:1011F0000CBD00000010024000200240042808D16D
:101200004FF0E021096941F004014FF0E022116143
:1012100007E04FF0E021096921F004014FF0E022DE
:10122000116170477047000010B51348006840F026
:1012300001001149086008464068104908400E49FD
:101240004860084600680E4908400B490860084697
:10125000006820F4802008600846406820F4FE0002
:1012600048604FF41F008860FFF754FF4FF00060A4
:101270000449086010BD0000001002400000FFF8A3
:10128000FFFFF6FE08ED00E010B50121880700F031
:1012900039F928B10121880700F030F800F002F890
:1012A00010BD00000948007804280DD108480078D6
:1012B000401C0749087008460078C82804DB002055
:1012C00008700320014908707047000002000020E8
:1012D0000000002010B50121054800F013F928B1E5
:1012E0000121034800F00AF800F004F810BD0000E6
:1012F000000400407047CA4302827047CA4302821A
:10130000704721B1028842F00102028004E00288A5
:101310004FF6FE731A4002807047000010B5044675
:101320006848844208D10121C014FFF75DFE002106
:10133000E014FFF759FEC4E0B4F1804F08D1012159
:101340000846FFF731FE00210120FFF72DFEB8E02F
:101350005D48844208D101210220FFF725FE0021CB
:101360000220FFF721FEACE05848844208D1012159
:101370000420FFF719FE00210420FFF715FEA0E06E
:101380005348844208D101210820FFF70DFE0021B7
:101390000820FFF709FE94E04E48844208D101215D
:1013A0001020FFF701FE00211020FFF7FDFD88E06F
:1013B0004948844208D101212020FFF7F5FD002192
:1013C0002020FFF7F1FD7CE04448844208D1012150
:1013D0004014FFF709FE00216014FFF705FE70E0DE
:1013E0003F48844209D10121C804FFF7FDFD0021D7
:1013F0004FF40020FFF7F8FD63E03A48844209D13A
:1014000001210805FFF7F0FD00214FF48010FFF7E0
:10141000EBFD56E03448844209D101214805FFF72D
:10142000E3FD00214FF40010FFF7DEFD49E02F48F7
:10143000844208D101214020FFF7B6FD0021402061
:10144000FFF7B2FD3DE02A48844208D10121802007
:10145000FFF7AAFD00218020FFF7A6FD31E0254817
:10146000844208D101218015FFF79EFD0021A015BF
:10147000FFF79AFD25E02048844209D101210804A4
:10148000FFF7B2FD00214FF48030FFF7ADFD18E00B
:101490001A48844209D101214804FFF7A5FD002123
:1014A0004FF40030FFF7A0FD0BE01548844208D14F
:1014B00001218804FFF798FD00214FF48020FFF7F9
:1014C00093FD10BD002C01400004004000080040C6
:1014D000000C0040001000400014004000340140A7
:1014E000004C0140005001400054014000180040F1
:1014F000001C00400020004000400140004401402A
:101500000048014030B50246002000230024158A1F
:1015100005EA0103958905EA010413B10CB1012024
:1015200000E0002030BD1AB183890B43838102E0C3
:1015300083898B4383817047002202881D4B984228
:101540000ED01D4B98420BD0B0F1804F08D01B4BF2
:10155000984205D01A4B984202D01A4B984204D1B7
:101560004FF68F731A404B881A43174B984207D097
:10157000164B984204D04FF6FF431A40CB881A43CB
:1015800002808B8883850B8803850A4B98420BD099
:10159000094B984208D00E4B984205D00D4B98420B
:1015A00002D00D4B984201D10B7A0386012383822E
:1015B00070470000002C014000340140000400404E
:1015C00000080040000C00400010004000140040E3
:1015D0000040014000440140004801401FB5012186
:1015E0000846FFF7D1FC4FF08040FFF797FE40F22E
:1015F000E730ADF808004720ADF804000020ADF852
:101600000A00ADF8060001A94FF08040FFF794FFF3
:1016100001218807FFF76FFE012211469007FFF7AF
:1016200082FF1C208DF8000000208DF801000120B1
:101630008DF802008DF803006846FFF7FDFA0121DE
:101640008807FFF75EFE1FBD10B586B00020019031
:1016500002908DF80C008DF80E008DF81700002414
:1016600005E000210DF10F000155601CC4B2082CEB
:10167000F7DB01AA00210948FEF74FFF9DF80C0097
:1016800048B99DF80E00002804DD9DF80E1001A851
:10169000FFF7BAFC00BF06B010BD000000640040B8
:1016A00000BFFEE702E008C8121F08C1002AFAD1F5
:1016B00070477047002001E001C1121F002AFBD1D2
:1016C0007047000010B504466FF00400FFF796FD68
:1016D000E11704EB5171C1F3C701074A11701046BD
:1016E000007800EB4001C1EBC0104FF6FF7101EA3A
:1016F000C0000249088010BD040000200600002040
:1017000001460D4A12884A434FF0E0235A610022F5
:101710009A6101221A6100BF4FF0E022106900F0C7
:1017200001021AB100F48032002AF5D000224FF0F5
:10173000E0231A619A61704706000020FFF774FDEC
:10174000FFF773FA4820FFF7BDFFFFF70DFBFFF728
:101750004FFAFEF725FDFFF741FF4FF47A70FFF7D0
:10176000CFFFFFF7ABFAFFF771FB04210348FFF748
:1017700088F9FFF7F1FB00BFFEE700000010014011
:10178000A01700080000002014000000A4160008A4
:10179000B4170008140000200C040000B416000860
:1017A0000000000000000000000000000000000039
:0417B0000000000035
:04000005080000ED02
:00000001FF
